:100000000C94B41B0C94F41B0C94F41B0C94F41B74
:100010000C94F41B0C94F41B0C94F41B0C94F41B24
:100020000C94F41B0C94F41B0C94F41B0C94F41B14
:100030000C94F41B0C94F41B0C94F41B0C94F41B04
:100040000C94F41B0C944BA70C94F41B0C94F41B11
:100050000C94F41B0C944BA40C94F41B0C94CBF553
:100060000C94F41B0C949B6D0C94916D0C94F41BEC
:100070000C94F41B0C94F41B0C94F41B0C94F41BC4
:100080000C94F41B0C94F41B0C94F41B0C94F41BB4
:100090000C94F41B0C94F41B0C94F41B0C94F41BA4
:1000A0000C94F41B0C94F41B0C94F41B0C94F41B94
:1000B0000C94F41B0C94F41B0C94F41B0C94F41B84
:1000C0000C94F41B0C94F41B0C94F41B0C94F41B74
:1000D0000C94F41B0C94F41B0C94F41B0C94F41B64
:1000E0000C94F41B084AD73B3BCE016E84BCBFFD89
:1000F000C12F3D6C74319ABD56833DDA3D00C77FF8
:1001000011BED9E4BB4C3E916BAAAABE0000008090
:100110003F05A84CCDB2D44EB93836A9020C50B91F
:10012000918688083CA6AAAA2ABE000000803F004B
:100130000D94681F0D949A164E414E494E495459DC
:10014000494E46CDCCCC3D0AD7233C17B7D13877A2
:10015000CC2B329595E6241FB14F0A0000204100B8
:1001600000C84200401C4620BCBE4CCA1B0E5AAE02
:10017000C59D7400407A10F35A00A0724E18090011
:1001800010A5D4E80000E87648170000E40B5402FC
:100190000000CA9A3B000000E1F505000080969837
:1001A00000000040420F000000A086010000001087
:1001B0002700000000E803000000006400000000C9
:1001C000000A00000000000100000000002C76D8AA
:1001D00088DC674F0823DFC1DFAE59E1B1B796E590
:1001E000E3E453C63AE651997696E8E6C28426EBF4
:1001F000898C9B62ED407C6FFCEFBC9C9F40F2BA07
:10020000A56FA5F490055A2AF75C936B6CF9676D9E
:10021000C11BFCE0E40D47FEF520E6B500D0ED90F3
:100220002E0300943577050080841E080000204EC0
:100230000A000000C80C333333330F986E12831159
:1002400041EF8D2114893BE65516CFFEE6DB18D130
:10025000844B381BF77C1D901DA4BBE42420328402
:10026000725E228100C9F124ECA1E53D27434F4D88
:100270004D554E49434154494F4E004452595255F1
:100280004E004552524F525300494E464F0045438F
:10029000484F00506C65617365205265736574004A
:1002A0005052494E5445522048414C544544002533
:1002B000533A202553004B494C4C45442E200050C6
:1002C00072696E7465722068616C7465642E206B4F
:1002D000696C6C28292063616C6C6564210A006577
:1002E00063686F3A004572726F723A004F4646007B
:1002F0004F4E000A4D6561737572656420706F69B9
:100300006E74733A0A00347834206D6573682E2059
:100310005A206F66667365743A20004F46460A009D
:1003200046616465204865696768742000426564B9
:10033000204C6576656C696E6720004661696C6566
:100340006420746F20656E61626C65204265642074
:100350004C6576656C696E670A004D65736820426E
:100360006564204C6576656C20646174613A0A00AE
:10037000496E76616C6964206D6573682E0A002091
:100380006E6F7420656E74657265642E0A0050721B
:100390006F62696E6720506F696E74002553202567
:1003A000692F256900206F6620004D424C2047329E
:1003B0003920706F696E742000290A004A206F7519
:1003C00074206F662072616E67652028302D0029C9
:1003D0000A0049206F7574206F662072616E676530
:1003E0002028302D004732384C30004D657368208E
:1003F00070726F62696E6720646F6E65004D657321
:10040000682070726F62696E6720646F6E652E0A75
:10041000005374617274206D6573682070726F622E
:10042000696E67207769746820224732392053311A
:10043000222066697273742E0A00473239533200E3
:100440004732384C300A47323953320068617320E2
:100450006E6F20646174612E0A004D6573682042DE
:100460006564204C6576656C696E67200053206F6B
:100470007574206F662072616E67652028302D3597
:10048000292E0A004D65736820706F696E74206FA5
:100490007574206F662072616E67650A004D343294
:1004A0003120696E636F727265637420706172616E
:1004B0006D657465722075736167650A0020756DDE
:1004C0000A00433B204F66667365743A200020742F
:1004D000656D703A20004265640053657420766152
:1004E0006C75653A200021496E76616C69642069FB
:1004F0006E6465782E204661696C656420746F2097
:100500007365742076616C756520286E6F74653A2A
:100510002076616C756520617420696E6465782051
:100520003020697320636F6E7374616E74292E0AB4
:100530000021496E76616C69642073656E736F7219
:100540002E0A004F66667365747320726573657456
:1005500020746F2064656661756C742E0A004465B2
:1005600076696174696F6E0025533A2025730046E1
:10057000696E6973686564210A003A207A3A20003E
:10058000206F662000476F696E6720746F3A2058AD
:100590000043570A00206469723A0020616E676C5C
:1005A000653A005374617274207261646975733ABC
:1005B000004D343820506F696E740025533A202561
:1005C000642F256400506F736974696F6E696E677C
:1005D000207468652070726F62652E2E2E0A003FAF
:1005E0004C656773206F66206D6F76656D656E7400
:1005F00020696D706C61757369626C652028302D9F
:100600003135292E0A003F2028582C5929206F7592
:1006100074206F6620626F756E64732E0A005072CC
:100620006F6265206F7574206F6620626F756E64EF
:1006300073003F53616D706C652073697A65206E3D
:100640006F7420706C61757369626C652028342D3D
:100650003530292E0A004D3438205A2D50726F62E1
:1006600065205265706561746162696C6974792096
:10067000546573740A003F2856296572626F73656A
:10068000206C6576656C20696D706C61757369624C
:100690006C652028302D34292E0A005374616E6455
:1006A00061726420446576696174696F6E3A2000F6
:1006B0002052616E67653A2000204D61783A200033
:1006C000204D696E3A2000205369676D613A200021
:1006D0004D65616E3A200020440020204D323030BC
:1006E000205300202844697361626C6564293A00D4
:1006F00046696C616D656E742073657474696E67AC
:10070000730020204D3230312058004D6178204157
:100710006363656C65726174696F6E2028756E69BC
:1007200074732F7332290020204D3230332058004B
:100730004D61782066656564726174657320287503
:100740006E6974732F73290020520020204D3230BF
:1007500034205000416363656C65726174696F6E2B
:100760002028756E6974732F7332292028503C70CD
:1007700072696E742D616363656C3E20523C7265D4
:1007800074726163742D616363656C3E20543C74C4
:10079000726176656C2D616363656C3E290057411B
:1007A000524E494E4721204C6F77205A204A65729D
:1007B0006B206D6179206C65616420746F20756EAB
:1007C00077616E746564207061757365732E0A00BD
:1007D00020540020530020204D323035204200416B
:1007E0006476616E6365642028423C6D696E5F7358
:1007F00065676D656E745F74696D655F75733E20C6
:10080000533C6D696E5F66656564726174653E2018
:10081000543C6D696E5F74726176656C5F66656588
:1008200064726174653E20583C6D61785F6A6572E0
:100830006B3E20593C6D61785F6A65726B3E205A51
:100840003C6D61785F6A65726B3E20453C6D6178F6
:100850005F6A65726B3E2900204400204900202019
:100860004D333031205000486F74656E642050491C
:10087000440020440020490020204D3330342050D3
:1008800000426564205049440020580020204D61FA
:10089000783A2000200020204D696E3A2000203B4D
:1008A000200020204D323131205300536F667420D8
:1008B000656E6473746F70730020204D393037207B
:1008C000580053746570706572206D6F746F72207C
:1008D00063757272656E74730020440020204D357C
:1008E0003933205920460020440020204D3539332B
:1008F0002058204600496E707574205368617069F5
:100900006E6700206F72203020746F2064697361FD
:10091000626C650A003F4672657175656E63792089
:10092000284629206D7573742062652067726561A1
:10093000746572207468616E20003F5A657461208E
:100940002844292076616C7565206F7574206F6668
:100950002072616E67652028302D31290A003B2006
:100960000020496E76616C696420657874727564E4
:100970006572200047322F47332062616420706126
:1009800072616D65746572730A00536C6565702ED3
:100990002E2E005A2050726F6265205061737420B1
:1009A00042656400205A3A200020593A20004265EE
:1009B0006420583A20004D65736820706F696E742A
:1009C000206F7574206F662072616E67650A004340
:1009D0006C69636B20746F20526573756D652E2E84
:1009E0002E004E6F204D6F76652E00456E6420669A
:1009F000696C65206C6973740A00426567696E20D2
:100A000066696C65206C6973740A004E6F206D65B1
:100A10006469610A00286E6F2066696C652900436D
:100A2000757272656E742066696C653A20004E6F4F
:100A300074205344207072696E74696E670A0053A3
:100A400044207072696E74696E67206279746520E3
:100A5000002E0A0044656C6574696F6E20666169DA
:100A60006C65642C2046696C653A200046696C65AB
:100A70002064656C657465643A00256973002569B6
:100A80006D20256973002569682025696D20256919
:100A90007300256964202569682025696D20256912
:100AA00073002569792025696420256968202569F6
:100AB0006D20256973005072696E742074696D65CC
:100AC0003A20006F6B006F6666008E028902820218
:100AD0007B026D0244454255473A004D3131332087
:100AE00053004A6F6E204D4B32202D204D61726CA9
:100AF000696E20322E312E322E31204F46462E0086
:100B00002F2F004D31343520533C696E6465783E9B
:100B1000206F7574206F662072616E6765202830C3
:100B20002D31290A00416363656C65726174696FD8
:100B30006E00466565647261746500250A00465260
:100B40003A0020466C6F773A20004D424C204164B9
:100B50006A757374205A0064697300656E004329D6
:100B60000A0061626C656420286D696E2074656D91
:100B7000702000436F6C64206578747275646573CF
:100B80002061726520004F66667365747320417042
:100B9000706C696564004572723A20546F6F20660C
:100BA00061722100546F6F206661722066726F6DF2
:100BB000207265666572656E636520706F696E741C
:100BC0000A00454550524F4D204F4B0A002E0A0057
:100BD0002028302D313029002076616C7565206F1A
:100BE0007574206F662072616E676500416476617E
:100BF0006E6365204B3D004D383400446F6E6520B8
:100C00007072696E74696E672066696C650A004D62
:100C10003737004D333100496E76616C6964206569
:100C2000787472756465720A0020204D3230362067
:100C30005800486F6D65206F666673657400436188
:100C4000703A00434F4E4649475F4558504F525403
:100C5000004D4541545041434B00434F4F4C45528A
:100C60005F54454D5045524154555245004348410B
:100C70004D4245525F54454D5045524154555245A1
:100C800000424142595354455050494E4700415249
:100C90004353004D4F54494F4E5F4D4F4445530011
:100CA000544845524D414C5F50524F54454354496E
:100CB0004F4E00455854454E4445445F4D32300038
:100CC000435553544F4D5F4649524D574152455F2E
:100CD00055504C4F4144004C464E5F575249544585
:100CE000004C4F4E475F46494C454E414D450041F3
:100CF00055544F5245504F52545F53445F535441E3
:100D00005455530053445F5752495445005245507F
:100D1000454154004D554C54495F564F4C554D4537
:100D2000005344434152440050524F4D50545F537E
:100D30005550504F525400484F53545F414354490B
:100D40004F4E5F434F4D4D414E445300454D45522C
:100D500047454E43595F504152534552004341531A
:100D6000455F4C494748545F4252494748544E45B5
:100D7000535300544F47474C455F4C4947485453E1
:100D800000534F4654574152455F504F574552000C
:100D90004255494C445F50455243454E54004C45E2
:100DA00056454C494E475F44415441005A5F5052AA
:100DB0004F42450052554E4F5554004155544F4CEB
:100DC0004556454C005052494E545F4A4F420050E0
:100DD000524F4752455353004155544F5245504F7F
:100DE00052545F54454D50004155544F5245504F59
:100DF00052545F504F5300564F4C554D4554524935
:100E00004300454550524F4D0042494E4152595FB3
:100E100046494C455F5452414E5346455200534556
:100E20005249414C5F584F4E5F584F464600464925
:100E3000524D574152455F4E414D453A4D61726C9E
:100E4000696E20322E312E322E3120284E6F7620C0
:100E5000323820323032332031353A30343A353876
:100E60002920534F555243455F434F44455F5552E8
:100E70004C3A6769746875622E636F6D2F4D6172AD
:100E80006C696E4669726D776172652F4D61726C27
:100E9000696E2050524F544F434F4C5F564552534A
:100EA000494F4E3A312E30204D414348494E455F1F
:100EB000545950453A4A6F6E204D4B32202D204DEB
:100EC00061726C696E20322E312E322E31204558DF
:100ED0005452554445525F434F554E543A31205574
:100EE0005549443A63656465326132662D34316137
:100EF000322D343734382D396231322D6335356334
:100F0000363266333637666600290A0020746F2051
:100F1000003F5A206F7574206F662072616E67659E
:100F2000202800290A0020746F20003F59206F7587
:100F300074206F662072616E676520282D00290A73
:100F40000020746F20003F58206F7574206F66205A
:100F500072616E676520282D00203B0020204D38EF
:100F600035312058005A2D50726F6265204F6666E9
:100F70007365740020573A00436F6F6C696E672E7B
:100F80002E2E0045312025530020573A004265643B
:100F900020436F6F6C696E672E2E2E0042656420B1
:100FA00048656174696E672E2E2E0023646566693C
:100FB0006E652044454641554C545F0000626564AF
:100FC000004B6420004B6920004B702000206669B4
:100FD0006E6973686564212050757420746865209B
:100FE0006C617374204B702C204B6920616E6420FF
:100FF0004B6420636F6E7374616E74732066726FDE
:101000006D2062656C6F7720696E746F20436F6E20
:1010100066696775726174696F6E2E680A0050495F
:1010200044204175746F74756E6500206661696C4B
:101030006564212074696D656F75740A00504944B8
:10104000204175746F74756E6500206661696C650A
:1010500064212054656D70657261747572652074C9
:101060006F6F20686967680A0050494420417574B1
:101070006F74756E6500504944204379636C6573E5
:101080000025532025692F256900204B643A200054
:10109000204B693A2000204B703A200020436C61BD
:1010A0007373696320504944200A00204E6F206FFB
:1010B00076657273686F6F740A002054753A200069
:1010C000204B753A2000206D61783A2000206D6930
:1010D0006E3A200020643A200020626961733A2051
:1010E0000048656174696E672E2E2E00207374614E
:1010F00072740A00504944204175746F74756E65AE
:1011000000206661696C6564212054656D706572AC
:10111000617475726520746F6F20686967680A0072
:10112000504944204175746F74756E650050494490
:10113000204175746F74756E6500206661696C6519
:10114000642120426164206865617465722069646D
:101150000A00504944204175746F74756E6500A192
:101160000000006900A20000006300B00000000958
:1011700000C10000004100C20000004100C30000A7
:10118000004100C40000004100C50000004100C64D
:101190000000004145C70000004300C800000045B2
:1011A00000C90000004500CD0000004900D100004A
:1011B000004E00D50000004F00D60000004F00D7C1
:1011C0000000007800DC0000005500DD0000005940
:1011D00000E00000006100E10000006100E20000AA
:1011E000006100E30000006100E40000006100E530
:1011F0000000006100E60000006165E70000006398
:1012000000E80000006500E90000006500EA000059
:10121000006500EB0000006500EC0000006900EDD7
:101220000000006900EE0000006900EF00000069A6
:1012300000F10000006E00F20000006F00F30000FB
:10124000006F00F40000006F00F50000006F00F672
:101250000000006F00F80000006F00F9000000754A
:1012600000FA0000007500FB0000007500FC0000A3
:10127000007500FD0000007900FF00000079000407
:10128000010000410005010000610006010000436B
:10129000000701000063000C01000043000D010085
:1012A0000063000E01000044000F01000064001103
:1012B00001000064001901000065001A01000045EA
:1012C000001B01000065001F0100006700300100E5
:1012D000004900310100006900410100004C00425A
:1012E0000100006C00430100004E00440100006E4C
:1012F00000480100006E0058010000520059010032
:101300000072005A01000053005B01000073005F8F
:1013100001000073006001000053006101000073D0
:10132000006501000074006F01000075007C010081
:10133000007A007D0100005A007E0100007A0092D0
:101340000100006600E30200007800222000002E69
:10135000001E210000507822210000544D902100F1
:10136000003C2D922100002D3EB02100000300BB67
:1013700021000004003C2200007E00482200007E84
:101380003D60220000213D612200003D00642200FA
:10139000003C3D652200003E3DF12300000700A017
:1013A0003000003D0021F301000200C2F4010005FD
:1013B00000A2000000EC00B0000000DF00E400002C
:1013C00000E100F6000000EF00F7000000FD00FC67
:1013D000000000F500E3020000EB0087030000A519
:1013E000008F030000F40098030000F2009E030049
:1013F00000E300A3030000F600A9030000F400AC22
:10140000030000E000AD030000E300B1030000E0D2
:1014100000B2030000E200B5030000E300B80300DF
:1014200000F200BC030000E400BE030000E300C0C3
:10143000030000F700C1030000E600C3030000E55D
:1014400000902100007F00922100007E001A2200FF
:1014500000E8001E220000F30088250000FF0002C3
:10146000300000A1000C300000A2000D300000A3ED
:10147000009B300000DE009C300000DF00A0300048
:10148000003D00A1300000A700A2300000B100A381
:10149000300000A800A4300000B200A5300000A970
:1014A00000A6300000B300A7300000AA00A830005A
:1014B00000B400A9300000AB00AA300000B500ABBA
:1014C000300000B600AC300000B6DEAD300000B732
:1014D00000AE300000B7DEAF300000B800B0300022
:1014E00000B8DEB1300000B900B2300000B9DEB3A0
:1014F000300000BA00B4300000BADEB5300000BBE6
:1015000000B6300000BBDEB7300000BC00B83000D1
:1015100000BCDEB9300000BD00BA300000BDDEBB4B
:10152000300000BE00BC300000BEDEBD300000BF99
:1015300000BE300000BFDEBF300000C000C0300081
:1015400000C0DEC1300000C100C2300000C1DEC3F7
:10155000300000AF00C4300000C200C5300000C23F
:10156000DEC6300000C300C7300000C3DEC8300054
:1015700000C400C9300000C4DECA300000C500CB82
:10158000300000C600CC300000C700CD300000C8DD
:1015900000CE300000C900CF300000CA00D03000BB
:1015A00000CADED1300000CADFD2300000CB00D349
:1015B000300000CBDED4300000CBDFD5300000CCD3
:1015C00000D6300000CCDED7300000CCDFD83000B1
:1015D00000CD00D9300000CDDEDA300000CDDFDBF9
:1015E000300000CE00DC300000CEDEDD300000CE6A
:1015F000DFDE300000CF00DF300000D000E0300040
:1016000000D100E1300000D200E2300000D300E35E
:10161000300000AC00E4300000D400E5300000AD44
:1016200000E6300000D500E7300000AE00E83000F2
:1016300000D600E9300000D700EA300000D800EB07
:10164000300000D900EC300000DA00ED300000DBA3
:1016500000EF300000DC00F2300000A600F33000A4
:1016600000DD00F4300000B3DEF7300000DCDEFA0D
:10167000300000A6DEFB300000A500FC300000B00A
:1016800000FD300000A400074E0000FB0086510062
:1016900000FC0043530000FA0064FF0000A4006552
:1016A000FF0000A50066FF0000A60067FF0000A77E
:1016B0000068FF0000A80069FF0000A9006AFF00A1
:1016C00000AA006BFF0000AB006CFF0000AC006DD7
:1016D000FF0000AD006EFF0000AE006FFF0000AF26
:1016E0000070FF0000B00071FF0000B10072FF0049
:1016F00000B20073FF0000B30074FF0000B4007577
:10170000FF0000B50076FF0000B60077FF0000B7CD
:101710000078FF0000B80079FF0000B9007AFF00F0
:1017200000BA007BFF0000BB007CFF0000BC007D16
:10173000FF0000BD007EFF0000BE007FFF0000BF75
:101740000080FF0000C00081FF0000C10082FF0098
:1017500000C20083FF0000C30084FF0000C40085B6
:10176000FF0000C50086FF0000C60087FF0000C71D
:101770000088FF0000C80089FF0000C9008AFF0040
:1017800000CA008BFF0000CB008CFF0000CC008D56
:10179000FF0000CD008EFF0000CE008FFF0000CFC5
:1017A0000090FF0000D00091FF0000D10092FF00E8
:1017B00000D20093FF0000D30094FF0000D40095F6
:1017C000FF0000D50096FF0000D60097FF0000D76D
:1017D0000098FF0000D80099FF0000D9009AFF0090
:1017E00000DA009BFF0000DB009CFF0000DC009D96
:1017F000FF0000DD009EFF0000DE009FFF0000DF15
:1018000000E5FF00005C002500503A002568753AAD
:1018100025303268750025303268753A25303268D7
:101820007500253032687527253032687500200034
:101830002000200020003A003A0042656400456E16
:10184000636C6F73757265004500200025002020D1
:10185000202020202000200020002F005072696EE0
:10186000742041626F72746564004D3235005061BE
:101870007573696E672E2E2E004D3234003F00497D
:10188000676E6F726500526573657400496E6974A6
:1018900069616C697A6520454550524F4D0045009D
:1018A0005A0058590046696C2E204469612E004543
:1018B00020696E206D6D5E3300416476616E6365F4
:1018C000204B0020022046616374002002204D61FD
:1018D00078002002204D696E004F6666004F6E0052
:1018E0004175746F74656D70004D696E205472613E
:1018F00076656C205370656564004D696E20566591
:101900006C6F63697479004D617820402053706575
:101910006564004D6178204520416363656C004D2E
:101920006178204020416363656C00547261766584
:101930006C20416363656C0052657472616374204E
:10194000416363656C00416363656C00456E616271
:101950006C6520402073686170696E670040206488
:10196000616D70696E670040206672657175656EA5
:1019700063790044697361626C652040207368611B
:1019800070696E67004D61782040204A65726B0077
:101990005A2050726F62652057697A6172640050F4
:1019A000726F6265205A204F6666736574005072CC
:1019B0006F62652059204F66667365740050726FC0
:1019C00062652058204F666673657400402073740A
:1019D0006570732F6D6D00416476616E6365642080
:1019E00053657474696E6773003F0043616E63658D
:1019F0006C00496E6974004D34323800496E697468
:101A000069616C697A6520454550524F4D004669C1
:101A10006C616D656E740054656D7065726174758E
:101A2000726500447269766520537472656E6774DE
:101A3000680053746570732F6D6D0050726F62652E
:101A4000204F666673657473004A65726B00496E59
:101A50007075742053686170696E670041636365D7
:101A60006C65726174696F6E004D617820537065AA
:101A7000656420286D6D2F73290053657420486FAD
:101A80006D65204F66667365747300436F6E66699B
:101A90006775726174696F6E004C6576656C696E0E
:101AA0006720446F6E6521004D6F7665205A0047B0
:101AB00032395332004E65787420506F696E74006D
:101AC0002569202F202575004732395331004732D0
:101AD00039533200436C69636B20746F2042656731
:101AE000696E005A2056616C756500496E646578B0
:101AF000205900496E64657820580053746F7265F0
:101B00002053657474696E6773004C6F6164205371
:101B1000657474696E67730050726F6265205A2035
:101B20004F666673657400426564205A00466164BE
:101B30006520486569676874004F6666004F6E00EF
:101B4000426564204C6576656C696E670045646922
:101B500074204D657368004C6576656C2042656441
:101B6000004D6F74696F6E00426564004E6F7A7A43
:101B70006C650046616E20537065656400436F6E4E
:101B800066696775726174696F6E00526573746F10
:101B900072652044656661756C7473004C6F616496
:101BA0002053657474696E67730053746F72652097
:101BB00053657474696E677300507265686561740B
:101BC000202420436F6E660050726F6265205A2099
:101BD0004F666673657400416476616E6365642068
:101BE00053657474696E6773004D61696E0041429C
:101BF0005300504C41004572723A20454550524FB7
:101C00004D20436F7272757074004572723A2045B0
:101C10004550524F4D20435243004572723A204581
:101C20004550524F4D2053697A65004572723A20F3
:101C3000454550524F4D2056657273696F6E003F97
:101C4000004261636B0053746F70004E6F204D65EE
:101C5000646961005072696E742066726F6D204D08
:101C600065646961004368616E6765204D656469FC
:101C700061004D323100436F6E6669677572617441
:101C8000696F6E0054656D70657261747572650080
:101C90004D6F74696F6E00526573756D652050727B
:101CA000696E740054756E650053746F70205072C5
:101CB000696E74005061757365205072696E7400AE
:101CC000496E666F2053637265656E003F00537402
:101CD000617274205072696E740043616E63656C4A
:101CE000005072696E740043616E6E6F7420656E91
:101CF000746572207375626469723A200005202E43
:101D00002E004D61696E002100486F74656E64207D
:101D1000746F6F20636F6C64004261636B0050727C
:101D20006F63656564004D6F7665204578747275E4
:101D3000646572004D6F74696F6E0044697361620F
:101D40006C65205374657070657273004D38340093
:101D50004D34382050726F626520546573740047AB
:101D600032384F0A4D3438205031300042656420FB
:101D70004C6576656C696E67005A2050726F6265BB
:101D80002057697A617264004732385A0047323806
:101D90005900486F6D652040004732385800417542
:101DA000746F20486F6D65004D61696E0047323871
:101DB0005A0043616E63656C00446F6E65004D6F41
:101DC000766520246D6D00302E303235004D6F76F3
:101DD0006520302E316D6D004D6F766520316D6D53
:101DE0000050726F6265205A204F666673657400FA
:101DF0005A004D6F7665204E6F7A7A6C6520746F4D
:101E000020426564004D6F76696E6720746F2050C4
:101E1000726F62696E6720506F730050726F6269F3
:101E20006E67205A205265666572656E636500486C
:101E30006F6D696E672058595A00473238005072EA
:101E4000656865617420242042656400507265688D
:101E5000656174202420456E640054656D70657260
:101E6000617475726500F21BEE1B436F6F6C646FDB
:101E7000776E005072656865617420240046616E5B
:101E8000205370656564207E00426564004E6F7A61
:101E90007A6C65004D61696E0042616279737465A8
:101EA00070205A004261627973746570204000416D
:101EB0006476616E6365204B00466C6F7700466107
:101EC0006E205370656564207E00426564004E6F2D
:101ED0007A7A6C6500426564205A005370656564C7
:101EE000004D61696E006F70656E0054524947473E
:101EF00045524544003A20007A5F6D696E00795F73
:101F00006D696E00785F6D696E005265706F7274F6
:101F1000696E6720656E6473746F7020737461748A
:101F200075730A0020746F6F206C6F6E6720657880
:101F300074727573696F6E2070726576656E746504
:101F4000640A0020636F6C6420657874727573692D
:101F50006F6E2070726576656E7465640A000000AD
:101F60000000000080BF000000005761726E696EC3
:101F7000673A20486F6D696E672042756D70204426
:101F8000697669736F72203C20310A0002020400F6
:101F900000784300005343000051430000A040007C
:101FA00000A04000000040206C696D6974656420E9
:101FB000746F2000204D61782000000078430000FD
:101FC00052430000514300000000000080BF0000A9
:101FD000000053657474696E67732053746F726583
:101FE0006400290A002062797465733B2063726380
:101FF000200053657474696E67732053746F726543
:102000006420280048617264636F646564204465DD
:102010006661756C742053657474696E6773204CC7
:102020006F616465640020286D6D2900203B204CA1
:102030006576656C696E67200020204D3432302053
:1020400053004D65736820426564204C6576656C6D
:10205000696E670020460020420020480020204D85
:102060003134352053004D6174657269616C2068AC
:10207000656174757020706172616D6574657273ED
:102080000020204D393030204B004C696E65617264
:1020900020416476616E6365002020473239205309
:1020A00034205A00204A0020204732392053332060
:1020B000490020204D3134392043203B20556E69A2
:1020C000747320696E2043656C736975730A0054DC
:1020D000656D706572617475726520556E69747393
:1020E000002020473231203B004C696E6561722030
:1020F000556E69747300454550524F4D20646174AC
:102100006173697A65206572726F722E0A002028E9
:1021100063616C63756C6174656429210A00202118
:102120003D2000454550524F4D20435243206D699C
:10213000736D61746368202D202873746F726564F9
:10214000292000454550524F4D20436F72727570E3
:10215000740A002053697A653A2000496E646578F4
:102160003A2000290A002062797465733B2063726B
:102170006320002073746F726564207365747469E2
:102180006E677320726574726965766564202800D5
:102190000000164300001643000040410000F042DA
:1021A0000000C8420000C8420000C843CD4C214393
:1021B00020030000200300006400000088130000DA
:1021C000204D61726C696E3D563838290A004545CC
:1021D00050524F4D2076657273696F6E206D697332
:1021E0006D617463682028454550524F4D3D002471
:1021F000F404D9201BC40C5C0E9804C4095F02656A
:10220000077101F405F900FB04B30048048700C11D
:102210000369005803550003034500BE023A0084D9
:1022200002310053022A002902250004022000E4A2
:10223000011C00C8011900AF0117009801140084A7
:10224000011300710110006101100051010E0043E3
:10225000010D0036010B002B010B0020010B0015B6
:102260000109000C01090003010800FB000800F34C
:10227000000800EB000700E4000600DE000600D8BE
:10228000000600D2000600CC000500C7000500C211
:10229000000500BD000400B9000400B5000400B151
:1022A000000400AD000400A9000400A5000300A282
:1022B0000003009F0004009B0003009800030095AA
:1022C00000020093000300900003008D0002008BC9
:1022D00000030088000200860002008400030081E1
:1022E0000002007F0002007D0002007B00020079F6
:1022F0000002007700010076000200740002007204
:10230000000100710002006F0002006D0001006C0E
:102310000002006A00010069000200670001006617
:10232000000100650001006400020062000100611C
:10233000000100600001005F0002005D0001005C20
:102340000001005B0001005A000100590001005823
:102350000001005700010056000100550001005423
:102360000001005300000053000100520001005121
:10237000000100500001004F0001004E0000004E1F
:102380000001004D0001004C0001004B0000004B1B
:102390000001004A00010049000100480000004817
:1023A0000001004700010046000000460001004512
:1023B000000000450001004400010043000000430C
:1023C0000001004200000042000100410000004105
:1023D000000100400001003F0000003F0001003EFE
:1023E0000000003E0001003D0000003D0001003CF7
:1023F0000000003C0000003C0001003B0000003BEE
:102400000001003A0000003A0001003900000039E4
:1024100000010038000000380000003800010037DB
:1024200000000037000100360000003600000036D2
:1024300000010035000000350000003500010034C7
:1024400000000034000000340001003300000033BD
:1024500000000033000100320000003200000032B2
:1024600000010031000000310000003100010030A7
:1024700000000030000000300001002F0000002F9D
:102480000000002F0000002F0001002E0000002E91
:102490000000002E0001002D0000002D0000002D86
:1024A0000000002D0001002C0000002C0000002C7A
:1024B0000000002C0001002B0000002B0000002B6E
:1024C0000000002B0001002A0000002A0000002A62
:1024D0000000002A00010029000000290000002956
:1024E0000000002900000029000100280000002849
:1024F000000000280000002800000028000100273C
:10250000000000270000002700000027000000272F
:102510000001002600000026000000260000002622
:102520000000002600010025000000250000002515
:102530000000002500000025000000250001002407
:1025400000000024000000240000002400000024FB
:1025500000010023000000230000002300000023EE
:1025600000000023000000230000002300010022DF
:1025700000000022000000220000002200000022D3
:1025800000000022000100210000002100000021C5
:1025900000000021000000210000002100000021B7
:1025A00000010020000000200000002000000020AA
:1025B000000000200000002000000020000000209B
:1025C0000001001F0000001F0000001F0000001F8E
:1025D0000000001F0000001F0000001F0001001E7F
:1025E0000000001E0000001E0000001E000000246D
:1025F000F4D43050C38E20C2A24017828B701112C7
:102600007A910D816CD90AA861E108C75866076103
:102610005143061E4B5D05C145A7041A411104092B
:102620003D9803713931034036DB0265339102D4A2
:10263000305402802E1D02632CEE01752AC501B0B4
:1026400028A001102781018F2564012B244B01E074
:10265000223401AC211F018D200D01801FFC00845C
:102660001EED00971DDF00B81CD200E61BC600203F
:102670001BBC00641AB200B219A8000A19A0006AB3
:10268000189900D117910040178B00B516840031BE
:10269000167E00B31579003A157300C7146F005801
:1026A000146A00EE1366008813630025135E00C7EA
:1026B000125B006C12570015125400C111510070CA
:1026C000114F0021114B00D61049008D10470046D4
:1026D00010440002104200C00F4000800F3E004234
:1026E0000F3C00060F3B00CB0E3800930E37005C0A
:1026F0000E3500270E3400F30D3200C10D3100906D
:102700000D3000600D2E00320D2D00050D2C00D96E
:102710000C2B00AE0C2900850C29005C0C27003521
:102720000C27000E0C2600E80B2400C40B2400A08C
:102730000B23007D0B23005A0B2100390B210018BD
:102740000B2000F80A1F00D90A1E00BB0A1E009DBC
:102750000A1D00800A1D00630A1C00470A1B002C8A
:102760000A1B00110A1A00F7091A00DD091900C432
:10277000091900AB091900920917007B09180063B9
:102780000917004C09160036091600200916000A20
:10279000091500F5081500E0081400CC081400B86D
:1027A000081400A4081400900813007D0812006BA0
:1027B00008130058081200460812003408110023BC
:1027C0000811001208110001081100F0071000E0C4
:1027D000071000D0071000C0071000B0070F00A1BD
:1027E00007100091070E0083070F0074070F0065A4
:1027F000070E0057070E0049070E003B070D002E7D
:10280000070E0020070D0013070D0006070D00F945
:10281000060C00ED060D00E0060C00D4060C00C806
:10282000060C00BC060C00B0060C00A4060B0099B8
:10283000060C008D060B0082060B0077060B006C61
:10284000060B0061060A0057060B004C060A004200
:10285000060A0038060A002E060A0024060A001A94
:10286000060A001006090007060A00FD050900F423
:10287000050900EB050900E2050900D9050900D0AA
:10288000050900C7050900BE050900B5050800AD2A
:10289000050800A50509009C050800940508008CA2
:1028A000050800840508007C050800740508006C14
:1028B000050700650508005D050700560508004E80
:1028C00005070047050700400508003805070031E7
:1028D0000507002A050700230507001C050600164A
:1028E0000507000F0507000805060002050700FBA5
:1028F000040600F5040700EE040600E8040600E202
:10290000040700DB040600D5040600CF040600C956
:10291000040600C3040600BD040600B7040600B1A7
:10292000040500AC040600A6040600A00405009BF4
:1029300004060095040500900406008A040500853D
:10294000040500800406007A040500750405007083
:102950000405006B04050066040500610405005CC5
:1029600004050057040500520405004D0405004805
:10297000040500430405003E0404003A0405003544
:10298000040500300404002C04050027040400237F
:102990000405001E0404001A0404001604050011B6
:1029A0000404000D040400090405000404040000EC
:1029B000040400FC030400F8030400F4030400F022
:1029C000030400EC030400E8030400E4030400E053
:1029D000030400DC030400D8030400D4030400D083
:1029E000030400CC030400C8030300C50303002054
:1029F000436F756E7420583A004D6963726F73743B
:102A000065707320756E617661696C61626C650AD0
:102A1000002045303A00205A3A0020593A00205808
:102A20003A004D53317C327C332050696E73004242
:102A30006564004531004500626564002C207379AF
:102A40007374656D2073746F7070656421204865C0
:102A5000617465725F49443A20004572723A204DB4
:102A6000415854454D50004D415854454D502074E7
:102A700072696767657265640048656174696E674D
:102A8000204661696C65640048656174696E672001
:102A90006661696C65640070012C0190012701B0CA
:102AA000012201C0011D01F00118011002130130C3
:102AB000020E016002090190020401C002FF000041
:102AC00003FA004003F5008003F000D003EB002080
:102AD00004E6007004E100E004DC004005D700C01B
:102AE00005D2004006CD00D006C8008007C30030E4
:102AF00008BE00F008B900C009B400B00AAF00B0C9
:102B00000BAA00D00CA500000EA000500F9B00C027
:102B10001096005012910000148C00C0158700B070
:102B2000178200B0197D00D01B7800001E73004092
:102B3000206E0090226900F024640040275F00901E
:102B4000295A00E02B5500102E500020304B001069
:102B5000324600E033410090353C001037370070BA
:102B6000383200A0392D00B03A2800A03B23006085
:102B70003C1E00103D1900903D1400103E0F0070E7
:102B80003E0A00C03E0500003F0000403FFBFF80C2
:102B90003FF6FFC03FF1FF4572723A204D494E5457
:102BA000454D50004D494E54454D50207472696753
:102BB000676572656400544845524D414C2052553A
:102BC0004E4157415900546865726D616C205275D1
:102BD0006E6177617900202F002042403A0020404A
:102BE0003A000009121B242D363F48415A536C65A8
:102BF0007E7719100B023D342F265158434A757CBD
:102C0000676E323B2029161F040D7A7368615E5788
:102C10004C452B2239300F061D14636A7178474EDC
:102C2000555C646D767F4049525B2C253E37080128
:102C30001A137D746F6659504B42353C272E11187C
:102C4000030A565F444D727B60691E170C053A33C8
:102C500028214F465D546B627970070E151C232A9C
:102C600031384148535A656C777E09001B122D2478
:102C70003F3658514A437C756E671019020B343D3C
:102C8000262F737A6168575E454C3B3229201F1608
:102C90000D046A6378714E475C55222B3039060F5C
:102CA000141D252C373E0108131A6D647F764940A8
:102CB0005B523C352E2718110A03747D666F5059FC
:102CC000424B171E050C333A21285F564D447B7248
:102CD00069600E071C152A233831464F545D626B1C
:102CE000707900002110422063308440A550C660F6
:102CF000E770088129914AA16BB18CC1ADD1CEE1B9
:102D0000EFF13112100273325222B5529442F7722F
:102D1000D662399318837BB35AA3BDD39CC3FFF308
:102D2000DEE36224433420040114E664C774A4443F
:102D300085546AA54BB528850995EEE5CFF5ACC558
:102D40008DD55336722611163006D776F66695560F
:102D5000B4465BB77AA719973887DFF7FEE79DD7A8
:102D6000BCC7C448E5588668A7784008611802289F
:102D70002338CCC9EDD98EE9AFF9488969990AA9F8
:102D80002BB9F55AD44AB77A966A711A500A333A6F
:102D9000122AFDDBDCCBBFFB9EEB799B588B3BBB48
:102DA0001AABA66C877CE44CC55C222C033C600CFF
:102DB000411CAEED8FFDECCDCDDD2AAD0BBD688D98
:102DC000499D977EB66ED55EF44E133E322E511E4F
:102DD000700E9FFFBEEFDDDFFCCF1BBF3AAF599FE8
:102DE000788F8891A981CAB1EBA10CD12DC14EF188
:102DF0006FE18010A100C230E320045025404670EE
:102E00006760B9839893FBA3DAB33DC31CD37FE318
:102E10005EF3B1029012F322D2323542145277623D
:102E20005672EAB5CBA5A89589856EF54FE52CD5E8
:102E30000DC5E234C324A01481046674476424548D
:102E40000544DBA7FAB79987B8975FE77EF71DC7F8
:102E50003CD7D326F2369106B016576676761546DD
:102E600034564CD96DC90EF92FE9C899E9898AB948
:102E7000ABA94458654806782768C018E10882382D
:102E8000A3287DCB5CDB3FEB1EFBF98BD89BBBAB58
:102E90009ABB754A545A376A167AF10AD01AB32A7D
:102EA000923A2EFD0FED6CDD4DCDAABD8BADE89DA8
:102EB000C98D267C076C645C454CA23C832CE01CCD
:102EC000C10C1FEF3EFF5DCF7CDF9BAFBABFD98F38
:102ED000F89F176E367E554E745E932EB23ED10E1D
:102EE000F01E7C3C3E5E2B3D3F2F5B5D3B2C2A223F
:102EF0005C004D6564696120496E697420466169B2
:102F00006C0053442063617264206F6B0A006F7021
:102F1000656E526F6F74206661696C65640A007635
:102F20006F6C756D652E696E6974206661696C657C
:102F3000640A004E6F20534420636172640A005398
:102F40004420636172642072656C65617365640A14
:102F5000000A4D3234004D3233202573002E0A0012
:102F60006F70656E206661696C65642C2046696CC3
:102F7000653A200046696C652073656C656374650D
:102F8000640A002053697A653A200046696C65201E
:102F90006F70656E65643A2000454E44205355427B
:102FA000524F5554494E450A002220706F7300223B
:102FB00020706172656E743A2200535542524F552B
:102FC00054494E452043414C4C20746172676574EE
:102FD0003A220053756263616C6C204F76657266AD
:102FE0006C6F77004578636565646564206D617812
:102FF00020535542524F5554494E452064657074D4
:10300000683A0057726974696E6720746F20666948
:103010006C653A2000667265736800646F696E675C
:10302000002066696C653A20004E6F7720002F61A2
:1030300075746F25632E67001000C90210012C0102
:103040004001220170011801B0010E01F0010401DC
:103050005002FA00B002F0003003E600D003DC00BA
:103060009004D2007005C800A006BE000008B4009D
:10307000B009AA00D00BA000600E960060118C0071
:103080000015820020197800C01D6E00A022640087
:10309000B0275A00902C500000314600E0343C002C
:1030A00010383200903A2800603C1E00A03D140009
:1030B000803E0A00203F00002020506C616E6E654B
:1030C0007242756666657242797465733A200020B3
:1030D00046726565204D656D6F72793A2000204318
:1030E0006F6D70696C65643A204E6F7620323820BF
:1030F000323032330A00204C6173742055706461A1
:103100007465643A20323032332D30352D3136201B
:103110007C20417574686F723A20284A6F6E2C20AB
:103120004F726967696E616C2053746F636B204DD9
:103130004B3220436F6E666967290A004D61726CDD
:10314000696E20322E312E322E310A0020536F66E6
:1031500074776172652052657365740A0020576147
:10316000746368646F672052657365740A00204257
:10317000726F776E206F75742052657365740A00E4
:103180002045787465726E616C2052657365740AAF
:1031900000506F77657255700A0073746172740A1B
:1031A000004732385859004D31303031006F6B00D4
:1031B0006572726F722077726974696E6720746FBE
:1031C0002066696C650A00446F6E652073617669DC
:1031D0006E672066696C652E0A00456E6473746FB5
:1031E0007073002553202563202563202563202547
:1031F0006300205A3A0020593A0020583A00656E80
:103200006473746F7073206869743A200000000A58
:103210000B02090C0D0E080703040100000000005A
:10322000000000000000000000000000000000009E
:10323000000000000000000000121110000000005B
:10324000000000000000000000000000000000007E
:10325000000000000000000000000000000000006E
:10326000000000D21F0000261800004B100000E0F4
:1032700009000086050000EF02000084010000C57F
:103280000000004D6F766520246D6D00302E3032C9
:1032900035004D6F766520302E316D6D004D6F76A7
:1032A0006520316D6D004D6F76652031306D6D009C
:1032B0004D6F76652041786973004D6F7665202AE1
:1032C000004D6F76652040005072696E7420667202
:1032D0006F6D204D656469610020000000220025AB
:1032E0000028002B002E00310034000201000005F0
:1032F0000108010B0100002100240027002A002DF5
:10330000003000330001010000040107010A01053B
:10331000050505070508080808020202020A0A084E
:103320000804040404010101010101010103030374
:103330000303030303040707070C0C0C0C0C0C0C11
:103340000C0202020206060606060606060B0B0B18
:103350000B0B0B0B0B07070A0A0A0A0A0A050505DD
:10336000040404080801021020200808102040105E
:103370002040800201020108040201010204081039
:103380002040808040201008040201800402018057
:103390004020100804020108040201010204081080
:1033A000204080010204081020408010080408809A
:1033B0001020400440801020400480486F6D696EEA
:1033C00067204661696C656400FFFFFF43616E6EB4
:1033D0006F74206F70656E2073756264697220006F
:1033E00050726F62696E67204661696C65640A009D
:1033F00050726F62696E67204661696C6564002077
:103400005A3A200020593A200042656420583A2058
:1034100000220A00556E6B6E6F776E20636F6D6DC4
:10342000616E643A202200204500205A0020590095
:1034300020204D3932205800537465707320706518
:103440007220756E6974004572726F7220777269AE
:1034500074696E6720746F20454550524F4D210AA4
:1034600000627573793A2070617573656420666FC8
:103470007220696E7075740A00627573793A2070F3
:10348000617573656420666F7220757365720A00DA
:10349000627573793A2070726F63657373696E67D2
:1034A0000A004D656469612052656D6F7665640040
:1034B0004D6564696120496E736572746564004D81
:1034C0003131322053687574646F776E0053544FF6
:1034D000505045442E20005072696E7465722073FE
:1034E000746F707065642064756520746F206572F8
:1034F000726F72732E204669782074686520657239
:10350000726F7220616E6420757365204D39393990
:1035100020746F20726573746172742E2028546554
:103520006D70657261747572652069732072657360
:1035300065742E2053657420697420616674657209
:103540002072657374617274696E67290A004E6F28
:1035500020436865636B73756D2077697468206CB0
:10356000696E65206E756D6265722C204C61737496
:10357000204C696E653A20004D3239004E6F204371
:103580006865636B73756D2077697468206C696E0C
:1035900065206E756D6265722C204C617374204CD1
:1035A000696E653A2000636865636B73756D206DA5
:1035B00069736D617463682C204C617374204C696D
:1035C0006E653A20004C696E65204E756D626572BD
:1035D000206973206E6F74204C617374204C696E87
:1035E00065204E756D6265722B312C204C617374B1
:1035F000204C696E653A20004D31313000536572C0
:1036000069616C20737461747573206D69736D6189
:103610007463680A005344207265616420657272A5
:103620006F720A004B494C4C20627574746F6E2F98
:1036300070696E0A002121204B494C4C2063617552
:103640007365642062792000746F6F206D75636804
:1036500020696E6163746976652074696D65202DDB
:103660002063757272656E7420636F6D6D616E6438
:103670003A20002121204B494C4C20636175736531
:1036800064206279200020746F6F206C6F6E672059
:10369000657874727573696F6E2070726576656E89
:1036A0007465640A0020636F6C64206578747275B9
:1036B00073696F6E2070726576656E7465640A005A
:1036C000486F6D652025732046697273740020452C
:1036D0003A00205A3A0020593A00583A006F6B0AD3
:1036E00000526573656E643A20004A6F6E204D4B40
:1036F00032202D204D61726C696E20322E312E32B7
:103700002E312052656164792E005072696E7469A1
:103710006E672E2E2E005072696E74205061757384
:10372000656400001C1F11111F000000061918031A
:10373000130C00040E1F041C000000000E131511D2
:103740000E00000004120912040000040A0A0A0A0A
:1037500011110E0C12120C00000000001F151115A3
:103760001F0000009A00980011241FBECFEFD1E285
:10377000DEBFCDBF00E00CBF84B78093151814BE28
:103780000FB6F894A89580916000886180936000DE
:10379000109260000FBE14E0A0E0B2E0E2EBFDE5A5
:1037A00002E00BBF02C007900D92A430B107D9F719
:1037B00028E1A4E0B4E001C01D92A531B207E1F711
:1037C0001BE1C3EBDBE100E006C021970109802F7C
:1037D000FE010F946C2BC23BD10780E00807A9F7CC
:1037E0000F94EE180D94C82E0C940000E0914D0932
:1037F00086E0E802F0011124E85CF64F8091500960
:1038000090E0958384830895FC01408308958F920E
:103810009F92AF92BF92CF92DF92EF92FF926B0195
:103820007C0120E030E0A9010F94A52487FD6BC046
:103830006DEB77E386E095E3A70196010F948B2B60
:103840006B017C0120E030E040E251E40F940A2556
:1038500020E030E040E251E40F940A254B015C0186
:1038600020E030E0A901C701B6010F94A52420E0B3
:1038700030E040EA50E487FF04C020E030E040EA56
:1038800050ECC501B4010F948B2B20E030E040E2F6
:1038900051E40F94672C0F94CF2C9B018BE237FFE0
:1038A00005C022273327261B370B8DE280939C040B
:1038B000C90164E670E00F94592BCB01EAE0F0E017
:1038C000BF010F94592B805D80939D04C901BF01F6
:1038D0000F94592B282FCB01BF010F94592B805DDA
:1038E00080939E048EE280939F04205D2093A00429
:1038F0008CE994E0FF90EF90DF90CF90BF90AF9075
:103900009F908F9008956DEB77E386E095EB94CFD1
:103910008F929F92AF92BF92CF92DF92EF92FF92DF
:10392000CF936B017C0120E030E0A9010F94A52426
:1039300087FDD6C06DEB77E386E095E3A70196019E
:103940000F948B2B6B017C0120E030E0A9010F94D8
:10395000A52487FFCAC0C701B601905820E030E017
:1039600040E251E40F940A2520E030E048EC52E4B4
:103970000F940A2520E030E040EA50E40F948B2BAE
:1039800020E030E040E251E40F94672C0F94CF2CFC
:103990006B017C0160E280E4C81682E4D8068FE007
:1039A000E806F1048CF0C701B60120E432E44FE0F0
:1039B00050E00F94F12ACA01B9012AE030E040E05A
:1039C00050E00F94F12A605D6093990460E280EA10
:1039D000C81686E8D80681E0E806F1048CF0C70135
:1039E000B60120EA36E841E050E00F94F12ACA011E
:1039F000B9012AE030E040E050E00F94F12A605D28
:103A000060939A0460E280E1C81687E2D806E10478
:103A1000F1048CF0C701B60120E137E240E050E04C
:103A20000F94F12ACA01B9012AE030E040E050E0E9
:103A30000F94F12A605D60939B0460E288EEC816E3
:103A400083E0D806E104F1048CF0C701B60128EE4A
:103A500033E040E050E00F94F12ACA01B9012AE0B6
:103A600030E040E050E00F94F12A605D60939C04E8
:103A7000C701B60124E630E040E050E00F94F12A9F
:103A80008AE0882E912CA12CB12CCA01B901A50184
:103A900094010F94F12A605D60939D048EE28093FF
:103AA0009E04C701B601A50194010F94F12AC62F07
:103AB000CA01B901A50194010F94F12A605D6093D8
:103AC0009F04C05DC093A00489E994E0CF91FF906A
:103AD000EF90DF90CF90BF90AF909F908F90089520
:103AE0006DEB77E386E095EB29CF20E030E040E214
:103AF00051E4C701B60136CF8F929F92AF92BF9229
:103B0000CF92DF92EF92FF92CF936B017C0120E086
:103B100030E0A9010F94A52487FDC3C06DEB77E3C6
:103B200086E095E3A70196010F948B2B6B017C0136
:103B300020E030E0A9010F94A52487FFB7C0C7019A
:103B4000B601905820E030E040E251E40F940A259D
:103B500020E030E040E251E40F940A2520E030E01C
:103B600040EA50E40F948B2B20E030E040E251E437
:103B70000F94672C0F94CF2C6B017C0160E280EADC
:103B8000C81686E8D80681E0E806F1048CF0C70183
:103B9000B60120EA36E841E050E00F94F12ACA016C
:103BA000B9012AE030E040E050E00F94F12A605D76
:103BB00060939A0460E280E1C81687E2D806E104C7
:103BC000F1048CF0C701B60120E137E240E050E09B
:103BD0000F94F12ACA01B9012AE030E040E050E038
:103BE0000F94F12A605D60939B0460E288EEC81632
:103BF00083E0D806E104F1048CF0C701B60128EE99
:103C000033E040E050E00F94F12ACA01B9012AE004
:103C100030E040E050E00F94F12A605D60939C0436
:103C200060E284E6C816D104E104F1048CF0C70117
:103C3000B60124E630E040E050E00F94F12ACA01DA
:103C4000B9012AE030E040E050E00F94F12A605DD5
:103C500060939D048AE0882E912CA12CB12CC70181
:103C6000B601A50194010F94F12AC62FCA01B9012A
:103C7000A50194010F94F12A605D60939E048EE289
:103C800080939F04C05DC093A0048AE994E0CF9123
:103C9000FF90EF90DF90CF90BF90AF909F908F906C
:103CA00008956DEB77E386E095EB3CCF20E030E0C4
:103CB00040E251E4C701B60149CFCF93DF93EC0155
:103CC000CB01BA010F94AB2420E030E048EC52E481
:103CD0000F94672C2FE632E143E85AE30F948B2BC5
:103CE000688379838A839B83DF91CF910895CF93F3
:103CF000DF93EC01CB01BA010F94AB2420E030E05C
:103D000048EC52E40F94672C2FE632E143E85AE383
:103D10000F948B2B688379838A839B83DF91CF9168
:103D200008950F94AB2420E030E048EC52E40F9467
:103D3000672C2FE632E143E85AE30F948B2BE8CD52
:103D4000CF93DF93EC01CB01BA010F94AB2420E0B9
:103D500030E040E251E40F94672C2AE037ED43E273
:103D60005CE30F948B2B688379838A839B83DF9139
:103D7000CF910895CF93DF93EC01CB01BA010F945B
:103D8000AB2420E030E040E251E40F94672C2AE0BD
:103D900037ED43E25CE30F948B2B688379838A834E
:103DA0009B83DF91CF9108950F94AB2420E030E006
:103DB00040E251E40F94672C2AE037ED43E25CE3E4
:103DC0000F948B2B24CDCF93DF93EC01CB01BA0161
:103DD0000F94AB24688379838A839B83DF91CF918F
:103DE0000895CF93DF93EC01CB01BA010F94AB247C
:103DF000688379838A839B83DF91CF910895CF93E2
:103E0000DF93EC01CB01BA010F94AB2420E030E04A
:103E100048EC52E40F94672C2FE632E143E85AE372
:103E20000F948B2B688379838A839B83DF91CF9157
:103E300008950F94AB2420E030E040E251E40F9469
:103E4000672C2AE037ED43E25CE30F948B2B54CED2
:103E5000CF93DF93EC01CB01BA010F94A9242AE0A0
:103E600037ED43E25DE30F94672C0F94D42C688305
:103E700079838A839B83DF91CF910895CF93DF93DA
:103E8000EC01CB01BA010F94AB242AE037ED43E2F9
:103E90005DE30F94672C688379838A839B83DF912A
:103EA000CF910895FC01518340830895CF93DF9310
:103EB000EC01CB01BA010F94AB2420E030E04AE7DB
:103EC00054E40F94672C27E137EB41ED58E30F944E
:103ED0008B2B688379838A839B83DF91CF910895AD
:103EE000CF93DF93EC01CB01BA010F94A9242AE010
:103EF00037ED43E25CE30F94672C0F94D42C688376
:103F000079838A839B83DF91CF910895FC0184910B
:103F10000895FC0180810895FC0180E0309749F00C
:103F20009491992331F0907C903809F08F5F31960D
:103F3000F7CF0895009751F0FC0180E0919199230B
:103F400031F0907C9038D1F38F5FF8CF80E0089506
:103F5000AF92BF92CF92DF92EF92FF920F931F9397
:103F6000CF93DF93EC015B018A01FB01199587FD7B
:103F700016C0C82ED12CF12CE12C2196F801C0825C
:103F8000D182E282F382CE01DF91CF911F910F9116
:103F9000FF90EF90DF90CF90BF90AF900895982F53
:103FA000907E903CA9F48F7190E0B0E0A0E06C01AD
:103FB0007D0156E0CC0CDD1CEE1CFF1C5A95D1F7A0
:103FC000CE010196F50119958F73C82A2296D6CF96
:103FD000982F907F903E11F58F7090E0B0E0A0E0B8
:103FE0006C017D0136E0CC0CDD1CEE1CFF1C3A950B
:103FF000D1F7CE010196F50119958F73C82A46E0D5
:10400000CC0CDD1CEE1CFF1C4A95D1F7CE010296AC
:10401000F50119958F73C82A2396B0CF982F987FF2
:10402000903F79F5877090E0B0E0A0E06C017D01F1
:1040300086E0CC0CDD1CEE1CFF1C8A95D1F7CE016E
:104040000196F50119958F73C82A96E0CC0CDD1CFA
:10405000EE1CFF1C9A95D1F7CE010296F501199539
:104060008F73C82A26E0CC0CDD1CEE1CFF1C2A95A1
:10407000D1F7CE010396F50119958F73C82A2496BE
:104080007DCF982F907C903841F4807C803869F403
:104090002196CE01F5011995F8CF8E7F8D3F28F03E
:1040A0002196CE01F5011995F8CFC12CD12C7601BE
:1040B00065CFCF93DF93C091B114D091B21481E05A
:1040C000CE31D105E4F020E030E040E05FE36091E4
:1040D000AD147091AE148091AF149091B0140F9400
:1040E0008B2B0F94CF2C6C1B7D0B77FF03C071952E
:1040F0006195710981E0633071050CF080E0DF911A
:10410000CF91089590E080E00895209109048330D4
:1041100021F425FD0CC024FD0CC030E0A90102C033
:10412000559547958A95E2F7CA018170089581E017
:10413000089580E008958091290484FD0BC080914A
:104140002B0487FD07C090912C04937081E019F433
:1041500080E0089581E008952FEB280F2A3108F0C0
:1041600047C0E22FF0E08091290490912A04A091A9
:104170002B04B0912C0404C0B695A795979587950C
:104180002A95D2F780FD02C081700895E65FFB4F4B
:10419000E081EE2341F18091830990918409E80F39
:1041A000F92FF11D808190ED980F9A3030F08E320A
:1041B00051F4818180538A3098F4F0930804E0939D
:1041C000070481E008958D3211F08B3249F481812A
:1041D00090ED980F9A3088F38E3211F48281EACFF5
:1041E000F0E0E0E0EACF1092080410920704E9CF73
:1041F00080E00895B1DF882341F081E02091070439
:1042000030910804232B09F480E0089570E090E0D9
:1042100080E00F94AB2429EC38EC48EC5EE30F947B
:10422000672C20E030E040E05FE30F948B2B0F948D
:10423000D42C862F0C9487D3CF92DF92EF92FF92EB
:104240006B017C0120E030E0A9010F94A52487FDDB
:1042500026C06DEB77E386E095E3A70196010F9406
:104260008B2B6B017C0120E030E0A9010F94A52489
:1042700020E030E040E05FE387FF04C020E030E072
:1042800040E05FEBC701B6010F948B2B0F94CF2C4E
:10429000CB01FF90EF90DF90CF900C9430D36DEB7B
:1042A00077E386E095EBD9CF0F94AB24C5CFCB0154
:1042B0000C9430D3862F0C9465D38EEF0E9429C6C0
:1042C0000C94B1C663E972E084E690E00E9451D894
:1042D00070E060E08AE090E00E9451D86AEB72E002
:1042E00084E690E00C9451D80E94C6CCEBCF8111AB
:1042F000E9CF68E270E080E991E00C9451D80E9427
:104300004AA9F5CF0E94E6CEF2CFCF93DF9300D03B
:104310001F92CDB7DEB70F94A92469837A838B836C
:104320009C83CE0101960E94E6D10F900F900F90D2
:104330000F90DF91CF9108950F94A9242AE037EDD3
:1043400043E25DE30F94672C0F94D42CDECF0F94DF
:10435000A9242AE037ED43E25CE30F94672C0F9425
:10436000D42CD3CFCF92DF92EF92FF92CF93DF93F3
:1043700000D01F92CDB7DEB76B017C0120E030E0AA
:10438000A9010F94A52487FD1BC06DEB77E386E0A0
:1043900095E3A70196010F948B2B69837A838B8316
:1043A0009C83CE0101960E94E6D10F900F900F9052
:1043B0000F90DF91CF91FF90EF90DF90CF90089515
:1043C0006DEB77E386E095EBE4CF0F94AB242AE026
:1043D00037ED43E25DE30F94672CC4CF0F94AB2419
:1043E000C1CFCF92DF92EF92FF92CF93DF9300D0B5
:1043F0001F92CDB7DEB70F94AB2420E030E048EC3D
:1044000052E40F94672C2FE632E143E85AE30F940D
:104410008B2B6B017C0120E030E0A9010F94A524D7
:104420002DEB37E346E055E387FF04C02DEB37E380
:1044300046E055EBC701B6010F948B2B69837A8355
:104440008B839C83CE0101960E9441D10F900F90E7
:104450000F900F90DF91CF91FF90EF90DF90CF9072
:1044600008950F94AB2420E030E04AE754E40F9421
:10447000672C27E137EB41ED58E30F948B2B0C941D
:104480007CD80F94AB2420E030E048EC52E40F9449
:10449000672C2FE632E143E85AE30F948B2B0C9400
:1044A000AFD80C941EAE0C941EAECF93DF9300D009
:1044B0001F92CDB7DEB780E090E0A0E2B2E489833E
:1044C0009A83AB83BC83BE016F5F7F4F81E00E9404
:1044D0006CAE0F900F900F900F90DF91CF910895D9
:1044E00060E579E081E00C946CAECF93DF9300D06F
:1044F0001F92CDB7DEB719821A821B821C82BE01C1
:104500006F5F7F4F81E00E946CAE0F900F900F9015
:104510000F90DF91CF910895CF93DF9300D01F923A
:10452000CDB7DEB780E090E0A0E2B2E489839A8361
:10453000AB83BC83BE016F5F7F4F80E00E946CAE97
:104540000F900F900F900F90DF91CF91089560E53D
:1045500079E080E00C946CAECF93DF9300D01F9293
:10456000CDB7DEB719821A821B821C82BE016F5F33
:104570007F4F80E00E946CAE0F900F900F900F90D5
:10458000DF91CF91089560E579E081E00C9432A647
:1045900060E579E080E00C9432A60C94D0AD0C94E8
:1045A000D0AD0C94D0AD0C94D0ADCF92DF92EF9201
:1045B000FF920F931F930E949FF500913604109174
:1045C000370420913804309139046B017C01C01A02
:1045D000D10AE20AF30A9701860137FD11C0209142
:1045E00035042095209335046A547C4F8F4F9F4F9C
:1045F00060933604709337048093380490933904A1
:1046000081E090913504911101C080E01F910F91DC
:10461000FF90EF90DF90CF900895CF93DF93C091FC
:10462000B114D091B214209729F16091AD1470911A
:10463000AE148091AF149091B0140F94CF2C6E5F94
:104640007F4F24976C177D07ACF470932D05609312
:104650002C050E949FF5605A75418F4F9F4F6093C4
:104660002E0570932F058093300590933105DF91CF
:10467000CF91089510922E0510922F0510923005BB
:1046800010923105F4CF0F931F93CF93DF9300D097
:1046900000D01F921F92CDB7DEB70091810210911A
:1046A000820220918302309184020D831E832F8326
:1046B00038870091850210918602209187023091FF
:1046C000880209831A832B833C839091751569179F
:1046D00010F06FEF690F262F30E0409176152C0F08
:1046E0003D1FF901403199F4943089F46181680FDC
:1046F00060688EE695E128960FB6F894DEBF0FBE8F
:10470000CDBFDF91CF911F910F910C9415F665816C
:10471000EECFFC01A081B1811C92A281B3818C916A
:104720008F5F8C930280F381E02D608180E0ABCFBE
:10473000CF92DF92EF92FF920F931F93CF93DF936D
:1047400000D000D0CDB7DEB78A0146E0469F900189
:10475000479F300D1124BC01620F731F46E050E0EB
:10476000CE0101960F94CE23C980DA80EB80FC80C5
:10477000F80140815181628173818FEF9FEFC416F0
:10478000D506E606F70640F081E090E04C155D05A1
:104790006E057F0508F080E026960FB6F894DEBF20
:1047A0000FBECDBFDF91CF911F910F91FF90EF9082
:1047B000DF90CF9008950F931F93CF93DF93CDB7E2
:1047C000DEB72E970FB6F894DEBF0FBECDBF8B01BC
:1047D0001E861D86FC0160817181828193816F83B9
:1047E000788789879A872FEF2B8760387105810535
:1047F000910538F48EE695E10E94EDE581E090E0C8
:104800002FC09E01235F3F4FAE01495F5F4F69EBB1
:1048100070E081EB93E10E94A1E797FD2CC08D85AC
:104820009E8526E0289FB001299F700D11246F54AA
:104830007C4E46E050E0CE0101960F94CE236D8170
:104840008EE695E10E94EDE501301105B9F26E8129
:104850006623A1F28EE695E10E94EDE582E090E00C
:104860002E960FB6F894DEBF0FBECDBFDF91CF916D
:104870001F910F9108959E01235F3F4FAE01495F45
:104880005F4F63E670E08FE591E10E94A1E797FD3D
:104890000BC08D859E8526E0289FB001299F700D55
:1048A0001124615A7E4EC5CF6FE3A4CFCF93DF931F
:1048B00000D01F92CDB7DEB780E090E0A0EAB0E470
:1048C00089839A83AB83BC8361E0CE0101960E9409
:1048D0003FC50F900F900F900F90DF91CF910895EB
:1048E0008091070490910804009731F04AE050E06D
:1048F00070E060E00D94C62260E070E0CB010895A6
:104900008091070490910804009731F04AE050E04C
:1049100070E060E00D94992160E070E0CB010895B3
:10492000CF93DF93EB0166DC882311F0E9DFEB0125
:10493000CE01DF91CF910895E3DF97FD0AC0E0DF5C
:104940006F3F71058105910509F02CF4D9DF862FA1
:10495000089580E008958FEF0895CF93C62F4ADC25
:10496000882311F0CF91E8CF8C2FCF9108950F932A
:104970001F93CF93DF936FEF82E4EFDF83E53ADCA1
:104980008823C9F0D9DF8230E1F0833069F18130CA
:1049900091F40AE913E0C0E0F80181918F012ADC6B
:1049A000882331F0C9DF4FEF682F8C2F0E94FDEB79
:1049B000CF5FC43089F7DF91CF911F910F910C9495
:1049C0002FA50AE913E0C0E0F80181918F0112DC04
:1049D000882331F0B1DF482F6FEF8C2F0E94FDEB61
:1049E000CF5FC43089F7E7CFCAE9D3E00EE913E01F
:1049F000899100DC8111A0DF0C171D07C9F7DBCFFF
:104A00008091070490910804892B39F095DF91E09B
:104A1000811101C090E0892F089591E0FCCFCF93E0
:104A2000DF93C82FD62FE6DB882319F0DF91CF91D3
:104A3000E7CF8C2F91DB811101C08D2FDF91CF91BA
:104A400008955EDFCB0108950F931F93CF9380915C
:104A5000070490910804009709F1FC018F01C191AE
:104A60002C2F2F7DA1F0C53431F0C53621F0C8358B
:104A700011F0C83799F7F801108270E060E00F94E8
:104A80004320F801C083CF911F910F91089570E0EA
:104A900060E0CF911F910F910D94432060E070E092
:104AA000CB01F1CF4F925F926F927F92AF92BF9204
:104AB000CF92DF92EF92FF920F931F93CF938AE9E9
:104AC000A82E83E0B82E93EBE92E94E0F92E0DE6A4
:104AD00012E027E6C22E2FE0D22EC0E0F501819130
:104AE0005F0188DB882309F476C0AEDF2B013C012F
:104AF0008C2F0BDB882309F464C0F80120813181FD
:104B000042815381C301B2010F948B2BF701608363
:104B1000718382839383CF5FF4E0EF0EF11C0C5F0F
:104B20001F4F84E0C80ED11CC330C1F685E462DBA0
:104B3000882309F45BC088DF6B017C0183E0E5DA40
:104B4000882371F02091790230917A0240917B02A2
:104B500050917C02C701B6010F948B2B6B017C0135
:104B6000C092BF04D092C004E092C104F092C2048B
:104B700086E440DB8823B9F067DF20E030E0A9015C
:104B80000F94B22D18167CF45FDF20E030E040E790
:104B900052E40F94672C60930C0270930D02809383
:104BA0000E0290930F02CF911F910F91FF90EF9003
:104BB000DF90CF90BF90AF907F906F905F904F90BD
:104BC0000895F6012081318142815381C301B201F0
:104BD0000F948A2B9BCFF80180819181A281B381B0
:104BE000F70180839183A283B38395CF809179026B
:104BF00090917A02A0917B02B0917C028093BF04D5
:104C00009093C004A093C104B093C204B1CF0F939A
:104C10001F93522F20916C1530916D15281739076D
:104C200051F11092CB0490936D1580936C158B010C
:104C300030E020E000935A0910935B0920935C094F
:104C400030935D09409354095093550985559D4211
:104C500021F410927B09109287048EE695E10E9460
:104C60001DF60E94F5E782E08093560281E0809372
:104C70006A09109292041F910F91089581E0809328
:104C80007B09109271091092A60420E040E070E0C8
:104C900060E08DE496E4BBDF8AE39EE19093360901
:104CA00080933509089520E040E070E060E081E203
:104CB00091E3ADDF81E080939604809193048111AC
:104CC00007C088EC9AE190933609809335090895DE
:104CD0008EEC9AE1F8CF20E040E070E060E085E5FE
:104CE0009DE295CFCF930E94C6CC0E944AA9C82FBF
:104CF000882319F080E00E9434A88C2FF8DACF9135
:104D0000EACF87EF99E19093360980933509E3CF95
:104D1000CF93DF93C0918704CC23B1F0C150C093EF
:104D2000870489E0C89FE0011124CF5ADB4F6A81D4
:104D30007B812F814E818881998169DF888580936D
:104D40007B09DF91CF910895DF91CF91C4CFE0919E
:104D50008704E63028F581E08E0F80938704409128
:104D60005A0950915B0960915C0970915D0920912D
:104D700054099091550980917B0939E0E39FF00136
:104D80001124EF5AFB4FA0916C15B0916D15B183B2
:104D9000A0834283538364837583268397838087AC
:104DA000089510927B09B4CF20918A04211107C085
:104DB000909389048093880481E080938A04C7DFFC
:104DC00020E040E070E060E08DE796E420DF81E0E5
:104DD00080937B090E9441AEE4CFCF93DF93CDB7A0
:104DE000DEB78E81282F082E000C330B90914314D0
:104DF0009217130609F08CF4809343149E01275FE9
:104E00003F4F4F81588568E270E08AE194E10F944A
:104E10006D241092191410921814DF91CF910895F7
:104E20000F931F93CF93DF938C016F3F19F4109270
:104E3000431460E020914314862F062E000C990B3A
:104E40002817190609F014F560934314C8010F944C
:104E5000F423800F911FEC01C01BD10BC932D10587
:104E60003CF00197FC012491207C2038D1F3F3CF52
:104E7000DD27AE01B8018AE194E10F941524C65EE6
:104E8000DB4E18821092191410921814DF91CF91F2
:104E90001F910F9108958EE698E186DF81E080935F
:104EA0007B0960E086E197E3BBDF8AE698E19093B7
:104EB00036098093350908950F931F930E949FF53B
:104EC00000914D0410914E0420914F0430915004F4
:104ED000601B710B820B930B97FD10C08091030137
:104EE0008695817091E089279091030192FF8260FD
:104EF0009091000196FF846080934C0480914C0453
:104F0000817090914C0491FD826090914B049817B0
:104F100049F0813009F148F0823079F0833091F026
:104F200080934B041F910F910895913079F0923046
:104F3000B9F790914A049F5F0CC0992339F09330E0
:104F4000C1F3EECF9130A9F3923051F790914A041A
:104F5000915090934A04E4CF992359F3933001F789
:104F6000F5CF4F925F926F927F928F929F92AF9206
:104F7000BF92CF92DF92EF92FF921F93CF93DF9376
:104F8000CDB7DEB760970FB6F894DEBF0FBECDBFCA
:104F90000E949FF56B017C01809104028F3F09F410
:104FA00047C00E949FF580903E0490903F04A090DF
:104FB0004004B0904104681979098A099B0997FD5A
:104FC00037C080913615909137158F5F8F70891794
:104FD00079F1E091040280E090E0A4EBB2E4E430E7
:104FE00050F424E0E29FF0011124E750FD4F80814E
:104FF0009181A281B3818D879E87AF87B88B1982FB
:105000001A821B821C821D821E821F8218861986AC
:105010001A861B861C86AE014F5F5F4FBE01635F21
:105020007F4F8DE692E00F94A1148FEF80930402DE
:1050300043DF80914C0482FF33C080914904811189
:1050400031C091E09093490480918209892780932F
:1050500044091092820983E08093560210924C0416
:105060000E949FF56C507E4F8F4F9F4F60934D0471
:1050700070934E0480934F049093500468E873E15A
:1050800082E090E00E9451D816E0115059F00E9441
:10509000EBD762E070E080E090E00E9405F5F5CF8C
:1050A000109249048091770990917809A09179092B
:1050B000B0917A09A7019601281B390B4A0B5B0BAB
:1050C000DA01C901B7FD88C1D701C6018C599F4FCC
:1050D000AF4FBF4F8093770990937809A0937909D8
:1050E000B0937A0960914A04062E000C770B77FF83
:1050F00003C071956195710990914A0480914804AB
:10510000981398C0633008F095C010924A048091BB
:105110004A0480934804643008F09CC0809144099C
:1051200081111AC180916C1590916D1585559D4224
:1051300041F480910502882309F420C181508093B5
:1051400005020E94A5B18090B6099090B709A09081
:10515000B809B090B90981110E94B2B1D501C4015A
:105160004AE0B695A795979587954A95D1F78F3FD1
:105170004FEF9407A105B10520F08FEF9FEFA0E05E
:10518000B0E0209156022223C9F1969587950097A9
:1051900039F040914204509143044817590770F583
:1051A000223038F0243008F4FBC0243011F410927F
:1051B0005602E0916C15F0916D1519951092440905
:1051C00080916C1590916D1585559D42F9F40E9462
:1051D0009FF5DC01CB018C199D09AE09BF098090B8
:1051E000420490904304B12CA12C88169906AA067B
:1051F000BB0620F4909343048093420480916C1585
:1052000090916D1585559D4209F4CEC080917B0922
:105210008111CAC08091440490914504A091460434
:10522000B0914704C81AD90AEA0AFB0AF7FCCAC0B7
:1052300052DDC8C0633009F06ACF80914A0487FD0F
:1052400007C081E0880F880F80934A0464E05FCF35
:105250008FEFF8CF80916F0921E030E040E050E01F
:10526000882309F456C080906B0990906C09A09037
:105270006D09B0906E0981149104A104B104E9F1A3
:1052800070E090E080E00F94A92420E030E040E856
:105290005EE30F940A252B013C01C701B601681992
:1052A00079098A099B090F94A9249B01AC01C301C8
:1052B000B2010F94672C20E030E04AE754E40F94E9
:1052C0000A254B015C0120E030E040EA52E40F94F3
:1052D000B22D24E630E040E050E087FF12C020E02D
:1052E00030E040EF51E4C501B4010F94B22D2AE043
:1052F00030E040E050E087FF04C021E030E040E0D3
:1053000050E0C0926B09D0926C09E0926D09F09266
:105310006E09A0914A040A2E000CBB0B0F94172BA8
:1053200024E030E040E050E00F94F12A80915A09E7
:1053300090915B09A0915C09B0915D09820F931F68
:10534000A41FB51F80935A0990935B09A0935C0931
:10535000B0935D0910924A04D701C6018856954C56
:10536000AF4FBF4F8093440490934504A0934604ED
:10537000B093470481E080935602D4CE89E08093B5
:1053800005028091420490914304009729F001970F
:10539000909343048093420481E080935602D1CEDF
:1053A00081E08093560205CF38E9C30E3AE3D31E5D
:1053B000E11CF11CC0924404D0924504E0924604E2
:1053C000F0924704809156028130E1F0833021F45D
:1053D0008EE695E10E941DF660960FB6F894DEBF4A
:1053E0000FBECDBFDF91CF911F91FF90EF90DF9067
:1053F000CF90BF90AF909F908F907F906F905F9075
:105400004F90089510925602E7CFCF92DF92EF921D
:10541000FF92CF93C82F0E949FF56B017C0124EA75
:1054200030E74DE75FE360910602709107028091DB
:105430000802909109020F94A52487FD18C08AEFF5
:1054400090E0A0E0B0E08C0D9D1DAE1DBF1D8093CF
:105450003E0490933F04A0934004B0934104C09352
:105460000402CF91FF90EF90DF90CF90089580E0FD
:1054700090E0DC01E8CF20E044E064E18EE695E1D5
:105480000E9424F60E94F5E78EE695E10C941DF645
:10549000CF93DF93F0DFE4E0F1E080818D7F8083C4
:1054A000C5E0D1E0888180958270A3E0B1E08C9363
:1054B00080818B7F80838881809584708C93E1E0EC
:1054C000F1E080818F7B80838091020180958074E0
:1054D00080930001F1DC10924A04DF91CF910C948B
:1054E00044E8CF92DF92EF92FF920F931F93CF93F6
:1054F000DF9300D000D01F921F92CDB7DEB78E0190
:105500000F5F1F4FD80130E020E0FB01E20FF31FD7
:10551000E491ED932F5F3F4F28303105B1F798E0CC
:105520008902B001112460648EE695E10E9415F6AF
:1055300083E790E00197F1F77801E8E0EE0EF11CC7
:105540008BE9C82ED12CF80161918F018EE695E18F
:105550000E94EDE5C6010197F1F7E016F10699F713
:1055600028960FB6F894DEBF0FBECDBFDF91CF9166
:105570001F910F91FF90EF90DF90CF9008956FEF04
:105580007FEF19C94F925F926F927F928F929F9295
:10559000BF92CF92DF92EF92FF920F931F93CF9320
:1055A000DF9300D000D01F921F92CDB7DEB77C01F1
:1055B0003B016A014901FB016081FC01808163D8E4
:1055C000C114D10469F1FA82E9827C826B820111F3
:1055D00020C0AE014B5F5F4FB401C6010E94A81FFF
:1055E0006C018D819E81AF81B885892B8A2B8B2B95
:1055F000B9F0CE010596C3DFF70180818F5F80830C
:10560000843138F3CE01019684D8E3CFB12C8601E2
:1056100029C08601B12C26C0452846284728B1F765
:1056200028960FB6F894DEBF0FBECDBFDF91CF91A5
:105630001F910F91FF90EF90DF90CF90BF909F90C0
:105640008F907F906F905F904F900895B39407C0B4
:10565000B1102EC001151105C9F20F5F1F4F0115C2
:105660001105A9F2AE014B5F5F4FB401C6010E9464
:10567000A81F6C014D805E806F80788441145104B6
:1056800061047104A9F0F0E24F1651046104710441
:10569000F9F2D301C2018D97A109B1090297A105C1
:1056A000B10530F04BE2441651046104710471F607
:1056B000F7018081482F4B0D5527551F4531510566
:1056C0002CF0853018F0CE01019623D881E04114EA
:1056D00051046104710409F480E0B80EF70180817F
:1056E0008B0D8083BB2009F497CFBA94AE014B5F3A
:1056F0005F4FB401C8010E94A81F8C01CE0105961E
:105700003EDFF0CFCF93DF93EA010E944323CE0127
:10571000DF91CF9134CFAF92BF92CF92DF92EF92D1
:10572000FF920F931F93CF93DF9300D01F92CDB7BB
:10573000DEB76C015B017A0110E000E00E151F0579
:10574000C8F4AE014F5F5F4FB501C6010E94A81FAC
:105750006C0189819A81AB81BC81892B8A2B8B2B2F
:1057600049F0B701601B710BCE01019624D8080FD8
:10577000191FE4CFC8010F900F900F900F90DF9189
:10578000CF911F910F91FF90EF90DF90CF90BF903E
:10579000AF9008954FEF5FEF69E87FE1BCCF4FEF27
:1057A0005FEF66E87FE1B7CF2F923F924F925F9213
:1057B0006F927F928F929F92AF92BF92CF92DF9221
:1057C000EF92FF920F931F93CF93DF9300D000D0FF
:1057D000CDB7DEB74C013B015A012E83232E2801A1
:1057E00081E080937B0940915A0950915B09609157
:1057F0005C0970915D09411551056105710571F0F4
:10580000141615060CF080E08093920410925A0949
:1058100010925B0910925C0910925D09109192043C
:105820003090440910924409311005C0809156020D
:10583000882309F4B1C0C2010E948C1F082F80E0A8
:10584000C114D10419F0C6010E948C1F1D82198257
:10585000E114F104B1F4402F50E0282F30E0CA01E8
:10586000820F931F45976CF484E190E0841B950BA5
:10587000821B930B97FD0196959587958D8381E00B
:10588000898301E026E83FE1A201BE016F5F7F4FFF
:10589000CE01059677DEE114F10489F08D8188232D
:1058A00021F01D8289818F5F898300E029E83FE133
:1058B000A701BE016F5F7F4FCE01059663DEC11465
:1058C000D10451F000E026E83FE1A601BE016F5F80
:1058D0007F4FCE01059656DE63E080E00E944323B1
:1058E0008BE590E0A0E0B0E0112321F080E290E0B1
:1058F000A0E0B0E089839A83AB83BC83CE0101969C
:105900003EDEC3014CDF8DE590E0A0E0B0E0112366
:1059100021F080E290E0A0E0B0E089839A83AB833D
:10592000BC83CE0101962BDEC4010E948C1F63E074
:1059300092E1981B892F0E94432380E290E0A0E02F
:10594000B0E0112321F08BE590E0A0E0B0E0898386
:105950009A83AB83BC83CE01019611DEC4011FDFA5
:1059600080E290E0A0E0B0E0112321F08DE590E02E
:10597000A0E0B0E089839A83AB83BC83CE0101961B
:10598000FEDD332049F0111102C0AE80B22CA1140B
:10599000B104D9F0F501199526960FB6F894DEBF3B
:1059A0000FBECDBFDF91CF911F910F91FF90EF9070
:1059B000DF90CF90BF90AF909F908F907F906F902F
:1059C0005F904F903F902F900895A2D9E5CFCF924E
:1059D000DF92EF92FF920F931F9389EEC82E89E119
:1059E000D82EF12CE12C0CEF19E130E020E042E759
:1059F00056E26BEE79E182EF99E1D6DE1F910F91CD
:105A0000FF90EF90DF90CF900895AF92BF92CF922A
:105A1000DF92EF92FF920F931F93CF93DF93CDB757
:105A2000DEB7ADB6BEB68CE898E10E948C1F90E060
:105A300001962DB73EB7281B390B0FB6F8943EBF21
:105A40000FBE2DBF8DB79EB701967C016CE878E143
:105A50000F94ED23E0915009E15010E000E0E430B4
:105A600038F4F0E0EE0FFF1FEE55FC4F008111817E
:105A70008DE7C82E88E1D82E2BE636E242E756E2C3
:105A80006FE778E186E898E18FDE0FB6F894BEBE46
:105A90000FBEADBEDF91CF911F910F91FF90EF90A0
:105AA000DF90CF90BF90AF9008958F929F92AF926A
:105AB000BF92CF92DF92EF92FF920F931F93CF93FB
:105AC000DF9300D01F92CDB7DEB710926F09E0913F
:105AD0001814F0911914309721F0199581110E9432
