:100000000C94AC190C94EC190C94EC190C94EC199C
:100010000C94EC190C94EC190C94EC190C94EC194C
:100020000C94EC190C94EC190C94EC190C94EC193C
:100030000C94EC190C94EC190C94EC190C94EC192C
:100040000C94EC190C94F6990C94EC190C94EC1992
:100050000C94EC190C94F6960C94EC190C94C1FCCD
:100060000C94EC190C9400570C94F6560C94EC1963
:100070000C94EC190C94EC190C94EC190C94EC19EC
:100080000C94EC190C94EC190C94EC190C94EC19DC
:100090000C94EC190C94EC190C94EC190C94EC19CC
:1000A0000C94EC190C94EC190C94EC190C94EC19BC
:1000B0000C94EC190C94EC190C94EC190C94EC19AC
:1000C0000C94EC190C94EC190C94EC190C94EC199C
:1000D0000C94EC190C94EC190C94EC190C94EC198C
:1000E0000C94EC19084AD73B3BCE016E84BCBFFD93
:1000F000C12F3D6C74319ABD56833DDA3D00C77FF8
:1001000011BED9E4BB4C3E916BAAAABE0000008090
:100110003F05A84CCDB2D44EB93836A9020C50B91F
:10012000918688083CA6AAAA2ABE000000803F004B
:100130000D94E1170D94760F4E414E494E49545996
:10014000494E46CDCCCC3D0AD7233C17B7D13877A2
:10015000CC2B329595E6241FB14F0A0000204100B8
:1001600000C84200401C4620BCBE4CCA1B0E5AAE02
:10017000C59D74434F4D4D554E49434154494F4ED3
:100180000044525952554E004552524F5253004965
:100190004E464F004543484F0053544F505045443E
:1001A0002E20005072696E7465722073746F7070C7
:1001B00065642064756520746F206572726F727358
:1001C0002E2046697820746865206572726F7220EF
:1001D000616E6420757365204D39393920746F2044
:1001E000726573746172742E202854656D70657227
:1001F00061747572652069732072657365742E2051
:100200005365742069742061667465722072657329
:1002100074617274696E67290A004E6F20436865C5
:10022000636B73756D2077697468206C696E6520E7
:100230006E756D6265722C204C617374204C696E12
:10024000653A20004E6F20436865636B73756D20BF
:1002500077697468206C696E65206E756D62657271
:100260002C204C617374204C696E653A20006368E1
:1002700065636B73756D206D69736D617463682C54
:10028000204C617374204C696E653A20004C696E95
:1002900065204E756D626572206973206E6F7420E3
:1002A0004C617374204C696E65204E756D62657289
:1002B0002B312C204C617374204C696E653A200000
:1002C0004D3131300053657269616C207374617413
:1002D0007573206D69736D617463680A00534420FF
:1002E00072656164206572726F720A004B494C4CF2
:1002F00020627574746F6E2F70696E0A0021212060
:100300004B494C4C20636175736564206279200011
:10031000746F6F206D75636820696E6163746976B0
:10032000652074696D65202D2063757272656E7429
:1003300020636F6D6D616E643A20002121204B496E
:100340004C4C20636175736564206279200062758E
:1003500073793A2070617573656420666F722069E5
:100360006E7075740A00627573793A2070617573E6
:10037000656420666F7220757365720A006275731A
:10038000793A2070726F63657373696E670A004D06
:10039000656469612052656D6F766564004D6564C2
:1003A000696120496E73657274656400506C6561A3
:1003B0007365205265736574005052494E5445521E
:1003C0002048414C5445440025533A202553004BC6
:1003D000494C4C45442E20005072696E7465722061
:1003E00068616C7465642E206B696C6C28292063CD
:1003F000616C6C6564210A006563686F3A00457240
:10040000726F723A004F4646004F4E005375626459
:100410006976696465642077697468204341544D46
:10042000554C4C20524F4D204C6576656C696E677B
:1004300020477269643A0A0042696C696E656172AC
:10044000204C6576656C696E6720477269643A0A6C
:1004500000426564204C6576656C696E67200046D5
:1004600061696C656420746F20656E61626C6520E3
:10047000426564204C6576656C696E670A00496E5A
:1004800076616C6964206D6573682E0A0050726F26
:1004900062696E6720506F696E740025532025696C
:1004A0002F2569002E0A002F0050726F62696E6757
:1004B000206D65736820706F696E74200020284479
:1004C000525952554E2900473239204175746F20D8
:1004D000426564204C6576656C696E67003F202834
:1004E0004C2C522C462C4229206F7574206F6620AC
:1004F000626F756E64732E0A003F2856296572621A
:100500006F7365206C6576656C20696D706C6175C4
:100510007369626C652028302D34292E0A004261EF
:1005200064205A2076616C75650A004E6F206269FE
:100530006C696E65617220677269640A002044000C
:1005400020204D32303020530020284469736162EE
:100550006C6564293A0046696C616D656E74207340
:10056000657474696E67730020204D3230312058F5
:10057000004D617820416363656C65726174696FD9
:100580006E2028756E6974732F7332290020204DF8
:100590003230332058004D617820666565647261A1
:1005A0007465732028756E6974732F732900205247
:1005B0000020204D323034205000416363656C656B
:1005C000726174696F6E2028756E6974732F73324F
:1005D000292028503C7072696E742D616363656CCC
:1005E0003E20523C726574726163742D6163636571
:1005F0006C3E20543C74726176656C2D616363655A
:100600006C3E29005741524E494E4721204C6F778E
:10061000205A204A65726B206D6179206C65616497
:1006200020746F20756E77616E74656420706175DB
:100630007365732E0A0020540020530020204D3291
:100640003035204200416476616E63656420284243
:100650003C6D696E5F7365676D656E745F74696D1F
:10066000655F75733E20533C6D696E5F66656564BA
:10067000726174653E20543C6D696E5F7472617680
:10068000656C5F66656564726174653E20583C6D9B
:1006900061785F6A65726B3E20593C6D61785F6A74
:1006A00065726B3E205A3C6D61785F6A65726B3E85
:1006B00020453C6D61785F6A65726B3E290020447D
:1006C0000020490020204D333031205000486F7405
:1006D000656E6420504944002044002049002020D9
:1006E0004D3330342050004265642050494400208E
:1006F000580020204D61783A2000200020204D69CC
:100700006E3A2000203B200020204D323131205312
:1007100000536F667420656E6473746F707300208D
:10072000204D393037205800537465707065722041
:100730006D6F746F722063757272656E74730020D2
:10074000440020204D3539332059204600204400F4
:1007500020204D3539332058204600496E7075747D
:100760002053686170696E67003B200020496E76F7
:10077000616C6964206578747275646572200053D9
:100780006C6565702E2E2E004732384C30005A2092
:1007900050726F626520506173742042656400205E
:1007A0005A3A200020593A200042656420583A20E5
:1007B000004D65736820706F696E74206F757420CA
:1007C0006F662072616E67650A00436C69636B2017
:1007D000746F20526573756D652E2E2E004E6F203E
:1007E0004D6F76652E00456E642066696C65206CE1
:1007F0006973740A00426567696E2066696C6520DA
:100800006C6973740A004E6F206D656469610A003B
:10081000286E6F2066696C65290043757272656E7B
:10082000742066696C653A20004E6F742053442032
:100830007072696E74696E670A0053442070726941
:100840006E74696E67206279746520002E0A004418
:10085000656C6574696F6E206661696C65642C20D7
:1008600046696C653A200046696C652064656C6574
:100870007465643A002569730025696D20256973E4
:10088000002569682025696D202569730025696444
:10089000202569682025696D2025697300256979FF
:1008A00020256964202569682025696D20256973E4
:1008B000005072696E742074696D653A20006F6B28
:1008C000006F66660094018F018801810173014405
:1008D000454255473A004D313132205368757464B2
:1008E0006F776E004D3131332053004A6F6E204DCB
:1008F0004B32202D204D61726C696E20322E312ECC
:10090000322E31204F46462E002F2F004D313435E8
:1009100020533C696E6465783E206F7574206F6665
:100920002072616E67652028302D31290A004163ED
:1009300063656C65726174696F6E004665656472AB
:1009400061746500250A0046523A0020466C6F77B4
:100950003A20004261627973746570205A006469BC
:100960007300656E0043290A0061626C656420288B
:100970006D696E2074656D702000436F6C64206536
:10098000787472756465732061726520004D34322D
:100990003120696E636F7272656374207061726179
:1009A0006D657465722075736167650A004D6573C6
:1009B0006820706F696E74206F7574206F66207286
:1009C000616E67650A004F666673657473204170D7
:1009D000706C696564004572723A20546F6F2066CE
:1009E00061722100546F6F206661722066726F6DB4
:1009F000207265666572656E636520706F696E74DE
:100A00000A00454550524F4D204F4B0A00206F724F
:100A1000203020746F2064697361626C650A003F46
:100A20004672657175656E637920284629206D755B
:100A300073742062652067726561746572207468E2
:100A4000616E20003F5A6574612028442920766138
:100A50006C7565206F7574206F662072616E6765B6
:100A60002028302D31290A00290A0020746F200027
:100A70003F5A206F7574206F662072616E67652023
:100A80002800290A0020746F20003F59206F7574D8
:100A9000206F662072616E676520282D00290A008C
:100AA00020746F20003F58206F7574206F6620728D
:100AB000616E676520282D002E0A002028302D3118
:100AC0003029002076616C7565206F7574206F6623
:100AD0002072616E676500416476616E6365204BCC
:100AE0003D004D383400446F6E65207072696E743D
:100AF000696E672066696C650A004D3737004D33B3
:100B00003100496E76616C69642065787472756431
:100B100065720A0020204D323036205800486F6D33
:100B200065206F6666736574004361703A00434FD9
:100B30004E4649475F4558504F5254004D45415429
:100B40005041434B00434F4F4C45525F54454D502D
:100B500045524154555245004348414D4245525F2C
:100B600054454D5045524154555245004241425919
:100B70005354455050494E470041524353004D4F46
:100B800054494F4E5F4D4F44455300544845524DD4
:100B9000414C5F50524F54454354494F4E004558C5
:100BA00054454E4445445F4D323000435553544FF5
:100BB0004D5F4649524D574152455F55504C4F414C
:100BC00044004C464E5F5752495445004C4F4E47E7
:100BD0005F46494C454E414D45004155544F5245A5
:100BE000504F52545F53445F535441545553005334
:100BF000445F575249544500524550454154004DB9
:100C0000554C54495F564F4C554D45005344434154
:100C100052440050524F4D50545F535550504F5214
:100C20005400484F53545F414354494F4E5F434F24
:100C30004D4D414E445300454D455247454E435955
:100C40005F50415253455200434153455F4C494721
:100C500048545F4252494748544E45535300544FFD
:100C600047474C455F4C494748545300534F4654FF
:100C7000574152455F504F574552004255494C44E9
:100C80005F50455243454E54004C4556454C494EE5
:100C9000475F44415441005A5F50524F4245005211
:100CA000554E4F5554004155544F4C4556454C00F8
:100CB0005052494E545F4A4F420050524F4752459E
:100CC0005353004155544F5245504F52545F544571
:100CD0004D50004155544F5245504F52545F504F64
:100CE0005300564F4C554D455452494300454550CD
:100CF000524F4D0042494E4152595F46494C455F63
:100D00005452414E534645520053455249414C5F5F
:100D1000584F4E5F584F4646004649524D57415234
:100D2000455F4E414D453A4D61726C696E20322EE1
:100D3000312E322E3120284E6F762032382032303C
:100D400032332031383A32303A33382920534F5534
:100D50005243455F434F44455F55524C3A6769746F
:100D60006875622E636F6D2F4D61726C696E466996
:100D7000726D776172652F4D61726C696E20505291
:100D80004F544F434F4C5F56455253494F4E3A31A3
:100D90002E30204D414348494E455F545950453A05
:100DA0004A6F6E204D4B32202D204D61726C696E62
:100DB00020322E312E322E31204558545255444582
:100DC000525F434F554E543A3120555549443A638A
:100DD000656465326132662D343161322D343734C9
:100DE000382D396231322D6335356336326633360C
:100DF0003766660047322F47332062616420706196
:100E000072616D65746572730A00203B0020204D8D
:100E10003835312058005A2D50726F6265204F6668
:100E2000667365740020573A00436F6F6C696E6794
:100E30002E2E2E0045312025530020573A004265C2
:100E40006420436F6F6C696E672E2E2E00426564BE
:100E50002048656174696E672E2E2E0023646566D6
:100E6000696E652044454641554C545F00006265FB
:100E700064004B6420004B6920004B70200020660A
:100E8000696E6973686564212050757420746865A3
:100E9000206C617374204B702C204B6920616E6450
:100EA000204B6420636F6E7374616E74732066727E
:100EB0006F6D2062656C6F7720696E746F20436F71
:100EC0006E66696775726174696F6E2E680A00508C
:100ED0004944204175746F74756E650020666169C0
:100EE0006C6564212074696D656F75740A005049E2
:100EF00044204175746F74756E6500206661696C7D
:100F00006564212054656D70657261747572652029
:100F1000746F6F20686967680A0050494420417502
:100F2000746F74756E6500504944204379636C6535
:100F3000730025532025692F256900204B643A2032
:100F400000204B693A2000204B703A200020436C6F
:100F5000617373696320504944200A00204E6F205A
:100F60006F76657273686F6F740A002054753A204B
:100F700000204B753A2000206D61783A2000206DEA
:100F8000696E3A200020643A200020626961733A59
:100F9000200048656174696E672E2E2E00207374E0
:100FA0006172740A00504944204175746F74756E03
:100FB0006500206661696C6564212054656D70650B
:100FC00072617475726520746F6F20686967680A52
:100FD00000504944204175746F74756E6500504926
:100FE00044204175746F74756E6500206661696C8C
:100FF00065642120426164206865617465722069BE
:10100000640A00504944204175746F74756E650020
:10101000A10000006900A20000006300B000000011
:101020000900C10000004100C20000004100C300EF
:1010300000004100C40000004100C5000000410064
:10104000C60000004145C70000004300C800000082
:101050004500C90000004500CD0000004900D10056
:1010600000004E00D50000004F00D60000004F00E9
:10107000D70000007800DC0000005500DD00000013
:101080005900E00000006100E10000006100E200A2
:1010900000006100E30000006100E4000000610066
:1010A000E50000006100E60000006165E700000067
:1010B0006300E80000006500E90000006500EA0048
:1010C00000006500EB0000006500EC000000690016
:1010D000ED0000006900EE0000006900EF00000074
:1010E0006900F10000006E00F20000006F00F300E4
:1010F00000006F00F40000006F00F50000006F00BA
:10110000F60000006F00F80000006F00F90000001A
:101110007500FA0000007500FB0000007500FC007F
:1011200000007500FD0000007900FF00000079005C
:1011300004010000410005010000610006010000FB
:1011400043000701000063000C01000043000D0193
:10115000000063000E01000044000F010000640065
:101160001101000064001901000065001A0100006F
:1011700045001B01000065001F01000067003001F1
:1011800000004900310100006900410100004C00ED
:10119000420100006C00430100004E0044010000C9
:1011A0006E00480100006E00580100005200590115
:1011B000000072005A01000053005B010000730040
:1011C0005F01000073006001000053006101000036
:1011D00073006501000074006F01000075007C0160
:1011E00000007A007D0100005A007E0100007A00B4
:1011F000920100006600E302000078002220000057
:101200002E001E210000507822210000544D902114
:1012100000003C2D922100002D3EB0210000030073
:10122000BB21000004003C2200007E004822000098
:101230007E3D60220000213D612200003D006422CD
:1012400000003C3D652200003E3DF1230000070008
:10125000A03000003D0021F301000200C2F40100B3
:101260000500A2000000EC00B0000000DF00E40078
:101270000000E100F6000000EF00F7000000FD00B4
:10128000FC000000F500E3020000EB008703000013
:10129000A5008F030000F40098030000F2009E03F5
:1012A0000000E300A3030000F600A9030000F4001F
:1012B000AC030000E000AD030000E300B103000058
:1012C000E000B2030000E200B5030000E300B80351
:1012D0000000F200BC030000E400BE030000E300D5
:1012E000C0030000F700C1030000E600C3030000D4
:1012F000E500902100007F00922100007E001A226C
:101300000000E8001E220000F30088250000FF0016
:1013100002300000A1000C300000A2000D300000DF
:10132000A3009B300000DE009C300000DF00A030F6
:1013300000003D00A1300000A700A2300000B10075
:10134000A3300000A800A4300000B200A5300000C7
:10135000A900A6300000B300A7300000AA00A83002
:101360000000B400A9300000AB00AA300000B500B6
:10137000AB300000B600AC300000B6DEAD3000008F
:10138000B700AE300000B7DEAF300000B800B030BC
:101390000000B8DEB1300000B900B2300000B9DEA4
:1013A000B3300000BA00B4300000BADEB53000003F
:1013B000BB00B6300000BBDEB7300000BC00B83068
:1013C0000000BCDEB9300000BD00BA300000BDDE58
:1013D000BB300000BE00BC300000BEDEBD300000EF
:1013E000BF00BE300000BFDEBF300000C000C03014
:1013F0000000C0DEC1300000C100C2300000C1DE0C
:10140000C3300000AF00C4300000C200C53000008F
:10141000C2DEC6300000C300C7300000C3DEC830E3
:101420000000C400C9300000C4DECA300000C5009E
:10143000CB300000C600CC300000C700CD3000002B
:10144000C800CE300000C900CF300000CA00D03044
:101450000000CADED1300000CADFD2300000CB006D
:10146000D3300000CBDED4300000CBDFD53000001D
:10147000CC00D6300000CCDED7300000CCDFD83036
:101480000000CD00D9300000CDDEDA300000CDDF25
:10149000DB300000CE00DC300000CEDEDD300000AE
:1014A000CEDFDE300000CF00DF300000D000E030C3
:1014B0000000D100E1300000D200E2300000D30093
:1014C000E3300000AC00E4300000D400E530000060
:1014D000AD00E6300000D500E7300000AE00E83097
:1014E0000000D600E9300000D700EA300000D80044
:1014F000EB300000D900EC300000DA00ED300000E5
:10150000DB00EF300000DC00F2300000A600F3301A
:101510000000DD00F4300000B3DEF7300000DCDE58
:10152000FA300000A6DEFB300000A500FC30000011
:10153000B000FD300000A400074E0000FB00865103
:101540000000FC0043530000FA0064FF0000A40008
:1015500065FF0000A50066FF0000A60067FF000011
:10156000A70068FF0000A80069FF0000A9006AFF4B
:101570000000AA006BFF0000AB006CFF0000AC0095
:101580006DFF0000AD006EFF0000AE006FFF0000B9
:10159000AF0070FF0000B00071FF0000B10072FFEB
:1015A0000000B20073FF0000B30074FF0000B4003D
:1015B00075FF0000B50076FF0000B60077FF000061
:1015C000B70078FF0000B80079FF0000B9007AFF8B
:1015D0000000BA007BFF0000BB007CFF0000BC00E5
:1015E0007DFF0000BD007EFF0000BE007FFF000009
:1015F000BF0080FF0000C00081FF0000C10082FF2B
:101600000000C20083FF0000C30084FF0000C4008C
:1016100085FF0000C50086FF0000C60087FF0000B0
:10162000C70088FF0000C80089FF0000C9008AFFCA
:101630000000CA008BFF0000CB008CFF0000CC0034
:101640008DFF0000CD008EFF0000CE008FFF000058
:10165000CF0090FF0000D00091FF0000D10092FF6A
:101660000000D20093FF0000D30094FF0000D400DC
:1016700095FF0000D50096FF0000D60097FF000000
:10168000D70098FF0000D80099FF0000D9009AFF0A
:101690000000DA009BFF0000DB009CFF0000DC0084
:1016A0009DFF0000DD009EFF0000DE009FFF0000A8
:1016B000DF00E5FF00005C0020002000200020008B
:1016C0003A003A0042656400456E636C6F73757250
:1016D000650045002568753A25303268750025306B
:1016E0003268753A253032687500253032687527C2
:1016F0002530326875002000250020202020202081
:101700002000200020002F005072696E742041627A
:101710006F72746564004D32350050617573696E87
:10172000672E2E2E004D3234003F0049676E6F72D7
:101730006500526573657400496E697469616C690E
:101740007A6520454550524F4D0045005A00585982
:101750000046696C2E204469612E004520696E2088
:101760006D6D5E3300416476616E6365204B0020D1
:10177000022046616374002002204D61780020023F
:10178000204D696E004F6666004F6E004175746FA4
:1017900074656D70004D696E2054726176656C20C1
:1017A0005370656564004D696E2056656C6F6369A2
:1017B0007479004D61782040205370656564004D58
:1017C0006178204520416363656C004D617820405D
:1017D00020416363656C0054726176656C204163DF
:1017E00063656C0052657472616374204163636564
:1017F0006C00416363656C00456E61626C652040FE
:101800002073686170696E6700402064616D706963
:101810006E670040206672657175656E637900447D
:10182000697361626C6520402073686170696E67DE
:10183000004D61782040204A65726B005A2050723A
:101840006F62652057697A6172640050726F6265D9
:10185000205A204F66667365740050726F6265206F
:1018600059204F66667365740050726F6265205828
:10187000204F666673657400402073746570732F23
:101880006D6D00416476616E6365642053657474A8
:10189000696E6773003F0043616E63656C00496E5B
:1018A0006974004D34323800496E697469616C693D
:1018B0007A6520454550524F4D0046696C616D6513
:1018C0006E740054656D7065726174757265004464
:1018D0007269766520537472656E6774680053741C
:1018E0006570732F6D6D0050726F6265204F666674
:1018F00073657473004A65726B00496E707574206D
:1019000053686170696E6700416363656C657261FD
:1019100074696F6E004D617820537065656420288E
:101920006D6D2F73290053657420486F6D65204FCE
:1019300066667365747300436F6E6669677572617E
:1019400074696F6E0041425300504C410045727201
:101950003A20454550524F4D20436F727275707456
:10196000004572723A20454550524F4D2043524334
:10197000004572723A20454550524F4D2053697AC6
:1019800065004572723A20454550524F4D205665CC
:101990007273696F6E0053746F726520536574744F
:1019A000696E6773004C6F61642053657474696E6F
:1019B00067730050726F6265205A204F66667365C8
:1019C00074004F6666004F6E00426564204C657679
:1019D000656C696E67004C6576656C2042656400D5
:1019E0004732394E00473239004175746F20486FD5
:1019F0006D65004D6F74696F6E00426564004E6FD7
:101A00007A7A6C650046616E2053706565640043A8
:101A10006F6E66696775726174696F6E0052657387
:101A2000746F72652044656661756C7473004C6FE9
:101A300061642053657474696E67730053746F72C8
:101A4000652053657474696E6773005072656865CC
:101A50006174202420436F6E660050726F626520AF
:101A60005A204F666673657400416476616E6365E3
:101A7000642053657474696E6773004D61696E000C
:101A80003F004261636B0053746F70004E6F204DD6
:101A900065646961005072696E742066726F6D20B2
:101AA0004D65646961004368616E6765204D6564DA
:101AB0006961004D323100436F6E6669677572610E
:101AC00074696F6E0054656D7065726174757265CE
:101AD000004D6F74696F6E00526573756D652050AF
:101AE00072696E740054756E650053746F70205087
:101AF00072696E74005061757365205072696E74FE
:101B000000496E666F2053637265656E003F005337
:101B100074617274205072696E740043616E636503
:101B20006C005072696E740043616E6E6F74206554
:101B30006E746572207375626469723A20000520C4
:101B40002E2E004D61696E002100486F74656E6431
:101B500020746F6F20636F6C64004261636B005090
:101B6000726F63656564004D6F76652045787472A9
:101B700075646572004D6F74696F6E0044697361BE
:101B8000626C65205374657070657273004D3834F3
:101B900000426564204C6576656C696E67005A206A
:101BA00050726F62652057697A6172640041757482
:101BB0006F20486F6D65004D61696E004732385A7D
:101BC0000043616E63656C00446F6E65004D6F7617
:101BD0006520246D6D00302E303235004D6F7665F6
:101BE00020302E316D6D004D6F766520316D6D00AA
:101BF00050726F6265205A204F6666736574005A92
:101C0000004D6F7665204E6F7A7A6C6520746F2078
:101C1000426564004D6F76696E6720746F20507264
:101C20006F62696E6720506F730050726F62696EE9
:101C300067205A205265666572656E636500486F5D
:101C40006D696E672058595A0047323800507265E6
:101C5000686561742024204265640050726568657F
:101C60006174202420456E640054656D7065726156
:101C7000747572650049194519436F6F6C646F770D
:101C80006E005072656865617420240046616E20A4
:101C90005370656564207E00426564004E6F7A7AF9
:101CA0006C65004D61696E003A00546F74616C00A0
:101CB0004261627973746570205A0042616279737F
:101CC000746570204000416476616E6365204B004E
:101CD000466C6F770046616E205370656564207EA8
:101CE00000426564004E6F7A7A6C650053706565DA
:101CF00064004D61696E00486F6D696E67204661D2
:101D0000696C6564006F70656E00545249474745C1
:101D1000524544003A20007A5F6D696E00795F6D2C
:101D2000696E00785F6D696E005265706F727469DC
:101D30006E6720656E6473746F7020737461747560
:101D4000730A0020746F6F206C6F6E672065787463
:101D5000727573696F6E2070726576656E746564F6
:101D60000A0020636F6C6420657874727573696F04
:101D70006E2070726576656E7465640A00576172D4
:101D80006E696E673A20486F6D696E672042756DA7
:101D9000702044697669736F72203C20310A00021A
:101DA000020200000000000080BF000000000000F0
:101DB000784300005343000051430000A04000005E
:101DC000A04000000040206C696D69746564207457
:101DD0006F2000204D617820000000784300005201
:101DE000430000514300000000000080BF000000DD
:101DF0000053657474696E67732053746F72656401
:101E000000290A002062797465733B2063726320A5
:101E10000053657474696E67732053746F726564E0
:101E200020280048617264636F64656420446566BD
:101E300061756C742053657474696E6773204C6FA0
:101E4000616465640020286D6D2900203B204C658D
:101E500076656C696E67200020204D343230205347
:101E6000004175746F20426564204C6576656C692D
:101E70006E670020460020420020480020204D319F
:101E800034352053004D6174657269616C2068655A
:101E90006174757020706172616D65746572730034
:101EA00020204D393030204B004C696E6561722026
:101EB000416476616E636500204A00202047323914
:101EC000205720490020204D3134392043203B2029
:101ED000556E69747320696E2043656C7369757300
:101EE0000A0054656D706572617475726520556E77
:101EF000697473002020473231203B004C696E65C5
:101F0000617220556E69747300454550524F4D20E3
:101F10006461746173697A65206572726F722E0AEA
:101F200000202863616C63756C6174656429210A03
:101F30000020213D2000454550524F4D2043524343
:101F4000206D69736D61746368202D202873746F30
:101F5000726564292000454550524F4D20436F72F1
:101F6000727570740A002053697A653A2000496ED0
:101F70006465783A2000290A002062797465733B11
:101F80002063726320002073746F72656420736530
:101F90007474696E677320726574726965766564BE
:101FA00020280000001643000016430000404100B6
:101FB00000F0420000C8420000C8420000C843CD03
:101FC0004C2143200300002003000064000000882F
:101FD000130000204D61726C696E3D563838290A35
:101FE00000454550524F4D2076657273696F6E20E3
:101FF0006D69736D617463682028454550524F4D7B
:102000003D0024F404D9201BC40C5C0E9804C409C0
:102010005F0265077101F405F900FB04B300480491
:102020008700C10369005803550003034500BE0241
:102030003A008402310053022A00290225000402DA
:102040002000E4011C00C8011900AF01170098012D
:10205000140084011300710110006101100051018E
:102060000E0043010D0036010B002B010B00200177
:102070000B00150109000C01090003010800FB0019
:102080000800F3000800EB000700E4000600DE0093
:102090000600D8000600D2000600CC000500C700EC
:1020A0000500C2000500BD000400B9000400B50031
:1020B0000400B1000400AD000400A9000400A50064
:1020C0000300A20003009F0004009B00030098008F
:1020D00003009500020093000300900003008D00B0
:1020E00002008B00030088000200860002008400CA
:1020F0000300810002007F0002007D0002007B00DF
:1021000002007900020077000100760002007400EE
:10211000020072000100710002006F0002006D00F9
:1021200001006C0002006A00010069000200670003
:102130000100660001006500010064000200620009
:10214000010061000100600001005F0002005D000D
:1021500001005C0001005B0001005A000100590011
:102160000100580001005700010056000100550011
:102170000100540001005300000053000100520010
:10218000010051000100500001004F0001004E000D
:1021900000004E0001004D0001004C0001004B000A
:1021A00000004B0001004A00010049000100480006
:1021B0000000480001004700010046000000460002
:1021C00001004500000045000100440001004300FB
:1021D00000004300010042000000420001004100F5
:1021E000000041000100400001003F0000003F00EE
:1021F00001003E0000003E0001003D0000003D00E7
:1022000001003C0000003C0000003C0001003B00DD
:1022100000003B0001003A0000003A0001003900D4
:1022200000003900010038000000380000003800CC
:1022300001003700000037000100360000003600C2
:1022400000003600010035000000350000003500B8
:1022500001003400000034000000340001003300AD
:1022600000003300000033000100320000003200A3
:102270000000320001003100000031000000310098
:1022800001003000000030000000300001002F008D
:1022900000002F0000002F0000002F0001002E0082
:1022A00000002E0000002E0001002D0000002D0077
:1022B00000002D0000002D0001002C0000002C006B
:1022C00000002C0000002C0001002B0000002B005F
:1022D00000002B0000002B0001002A0000002A0053
:1022E00000002A0000002A00010029000000290047
:1022F000000029000000290000002900010028003A
:10230000000028000000280000002800000028002D
:102310000100270000002700000027000000270020
:102320000000270001002600000026000000260013
:102330000000260000002600010025000000250006
:1023400000002500000025000000250000002500F9
:1023500001002400000024000000240000002400EC
:1023600000002400010023000000230000002300DF
:1023700000002300000023000000230000002300D1
:1023800001002200000022000000220000002200C4
:1023900000002200000022000100210000002100B6
:1023A00000002100000021000000210000002100A9
:1023B000000021000100200000002000000020009B
:1023C000000020000000200000002000000020008D
:1023D0000000200001001F0000001F0000001F007F
:1023E00000001F0000001F0000001F0000001F0071
:1023F00001001E0000001E0000001E0000001E0064
:10240000000024F4D43050C38E20C2A24017828B27
:102410007011127A910D816CD90AA861E108C75830
:102420006607615143061E4B5D05C145A7041A416D
:102430001104093D9803713931034036DB026533DD
:102440009102D4305402802E1D02632CEE01752AB5
:10245000C501B028A001102781018F2564012B241C
:102460004B01E0223401AC211F018D200D01801FA2
:10247000FC00841EED00971DDF00B81CD200E61B97
:10248000C600201BBC00641AB200B219A8000A19C9
:10249000A0006A189900D117910040178B00B5165B
:1024A000840031167E00B31579003A157300C71405
:1024B0006F0058146A00EE1366008813630025133A
:1024C0005E00C7125B006C12570015125400C11158
:1024D000510070114F0021114B00D61049008D1092
:1024E00047004610440002104200C00F4000800F19
:1024F0003E00420F3C00060F3B00CB0E3800930E0F
:1025000037005C0E3500270E3400F30D3200C10D8C
:102510003100900D3000600D2E00320D2D00050DA4
:102520002C00D90C2B00AE0C2900850C29005C0C6A
:102530002700350C27000E0C2600E80B2400C40BE6
:102540002400A00B23007D0B23005A0B2100390B24
:102550002100180B2000F80A1F00D90A1E00BB0A30
:102560001E009D0A1D00800A1D00630A1C00470A08
:102570001B002C0A1B00110A1A00F7091A00DD09BA
:102580001900C4091900AB091900920917007B0949
:102590001800630917004C091600360916002009B7
:1025A00016000A091500F5081500E0081400CC080B
:1025B0001400B8081400A4081400900813007D0843
:1025C00012006B0813005808120046081200340865
:1025D0001100230811001208110001081100F00772
:1025E0001000E0071000D0071000C0071000B0076F
:1025F0000F00A107100091070E0083070F0074075A
:102600000F0065070E0057070E0049070E003B0735
:102610000D002E070E0020070D0013070D00060702
:102620000D00F9060C00ED060D00E0060C00D406C6
:102630000C00C8060C00BC060C00B0060C00A4067A
:102640000B0099060C008D060B0082060B00770626
:102650000B006C060B0061060A0057060B004C06C7
:102660000A0042060A0038060A002E060A0024065E
:102670000A001A060A001006090007060A00FD05EE
:102680000900F4050900EB050900E2050900D90578
:102690000900D0050900C7050900BE050900B505F8
:1026A0000800AD050800A50509009C050800940573
:1026B00008008C050800840508007C0508007405E6
:1026C00008006C050700650508005D050700560554
:1026D00008004E05070047050700400508003805BB
:1026E0000700310507002A050700230507001C0520
:1026F0000600160507000F0507000805060002057D
:102700000700FB040600F5040700EE040600E804D9
:102710000600E2040700DB040600D5040600CF042F
:102720000600C9040600C3040600BD040600B70481
:102730000600B1040500AC040600A6040600A004CF
:1027400005009B04060095040500900406008A0419
:10275000050085040500800406007A040500750460
:102760000500700405006B040500660405006104A3
:1027700005005C04050057040500520405004D04E3
:10278000050048040500430405003E0404003A0423
:10279000050035040500300404002C04050027045E
:1027A0000400230405001E0404001A040400160497
:1027B0000500110404000D040400090405000404CC
:1027C000040000040400FC030400F8030400F40304
:1027D0000400F0030400EC030400E8030400E40335
:1027E0000400E0030400DC030400D8030400D40365
:1027F0000400D0030400CC030400C8030300C50395
:10280000030020436F756E7420583A004D6963725F
:102810006F737465707320756E617661696C616247
:102820006C650A002045303A00205A3A0020593A97
:102830000020583A004D53317C327C332050696E71
:102840007300426564004531004500626564002CF8
:102850002073797374656D2073746F707065642173
:10286000204865617465725F49443A200045727280
:102870003A204D415854454D50004D415854454D16
:102880005020747269676765726564004865617499
:10289000696E67204661696C6564004865617469AA
:1028A0006E67206661696C65640070012C0190019F
:1028B0002701B0012201C0011D01F0011801100221
:1028C000130130020E016002090190020401C002EE
:1028D000FF000003FA004003F5008003F000D0037E
:1028E000EB002004E6007004E100E004DC00400599
:1028F000D700C005D2004006CD00D006C800800732
:10290000C3003008BE00F008B900C009B400B00A26
:10291000AF00B00BAA00D00CA500000EA000500F15
:102920009B00C01096005012910000148C00C0153E
:102930008700B0178200B0197D00D01B7800001E00
:10294000730040206E0090226900F024640040274C
:102950005F0090295A00E02B5500102E50002030C7
:102960004B0010324600E033410090353C001037F8
:10297000370070383200A0392D00B03A2800A03B53
:102980002300603C1E00103D1900903D1400103ED5
:102990000F00703E0A00C03E0500003F0000403FAF
:1029A000FBFF803FF6FFC03FF1FF4572723A204DBA
:1029B000494E54454D50004D494E54454D5020749C
:1029C000726967676572656400544845524D414CB1
:1029D0002052554E4157415900546865726D616CE3
:1029E0002052756E6177617900202F002042403AB5
:1029F0000020403A000009121B242D363F48415A5E
:102A0000536C657E7719100B023D342F26515843C5
:102A10004A757C676E323B2029161F040D7A736855
:102A2000615E574C452B2239300F061D14636A71C5
:102A300078474E555C646D767F4049525B2C253E4D
:102A40003708011A137D746F6659504B42353C2785
:102A50002E1118030A565F444D727B60691E170CD5
:102A6000053A3328214F465D546B627970070E1585
:102A70001C232A31384148535A656C777E09001B64
:102A8000122D243F3658514A437C756E6710190247
:102A90000B343D262F737A6168575E454C3B3229D3
:102AA000201F160D046A6378714E475C55222B3047
:102AB00039060F141D252C373E0108131A6D647F4B
:102AC0007649405B523C352E2718110A03747D6607
:102AD0006F5059424B171E050C333A21285F564D53
:102AE000447B7269600E071C152A233831464F5407
:102AF0005D626B707900002110422063308440A534
:102B000050C660E770088129914AA16BB18CC1ADB4
:102B1000D1CEE1EFF13112100273325222B552944C
:102B200042F772D662399318837BB35AA3BDD39C04
:102B3000C3FFF3DEE36224433420040114E664C7D8
:102B400074A44485546AA54BB528850995EEE5CF54
:102B5000F5ACC58DD55336722611163006D776F6EC
:102B6000669556B4465BB77AA719973887DFF7FEA4
:102B7000E79DD7BCC7C448E5588668A77840086178
:102B80001802282338CCC9EDD98EE9AFF9488969F4
:102B9000990AA92BB9F55AD44AB77A966A711A508C
:102BA0000A333A122AFDDBDCCBBFFB9EEB799B5844
:102BB0008B3BBB1AABA66C877CE44CC55C222C0318
:102BC0003C600C411CAEED8FFDECCDCDDD2AAD0B94
:102BD000BD688D499D977EB66ED55EF44E133E322C
:102BE0002E511E700E9FFFBEEFDDDFFCCF1BBF3AE4
:102BF000AF599F788F8891A981CAB1EBA10CD12DD3
:102C0000C14EF16FE18010A100C230E320045025D5
:102C10004046706760B9839893FBA3DAB33DC31C49
:102C2000D37FE35EF3B1029012F322D23235421425
:102C30005277625672EAB5CBA5A89589856EF54F95
:102C4000E52CD50DC5E234C324A014810466744775
:102C50006424540544DBA7FAB79987B8975FE77EE9
:102C6000F71DC73CD7D326F2369106B016576676C5
:102C700076154634564CD96DC90EF92FE9C899E935
:102C8000898AB9ABA94458654806782768C018E115
:102C9000088238A3287DCB5CDB3FEB1EFBF98BD889
:102CA0009BBBAB9ABB754A545A376A167AF10AD065
:102CB0001AB32A923A2EFD0FED6CDD4DCDAABD8BD5
:102CC000ADE89DC98D267C076C645C454CA23C83B5
:102CD0002CE01CC10C1FEF3EFF5DCF7CDF9BAFBA29
:102CE000BFD98FF89F176E367E554E745E932EB205
:102CF0003ED10EF01E7C3C3E5E2B3D3F2F5B5D3B8C
:102D00002C2A225C004D6564696120496E6974203B
:102D10004661696C0053442063617264206F6B0AE2
:102D2000006F70656E526F6F74206661696C6564C8
:102D30000A00766F6C756D652E696E697420666128
:102D4000696C65640A004E6F2053442063617264AD
:102D50000A00534420636172642072656C6561737C
:102D600065640A000A4D3234004D32332025730069
:102D70002E0A006F70656E206661696C65642C2098
:102D800046696C653A200046696C652073656C6520
:102D9000637465640A002053697A653A20004669C5
:102DA0006C65206F70656E65643A2000454E442066
:102DB000535542524F5554494E450A002220706FD8
:102DC00073002220706172656E743A22005355427E
:102DD000524F5554494E452043414C4C207461722A
:102DE0006765743A220053756263616C6C204F769C
:102DF0006572666C6F77004578636565646564200D
:102E00006D617820535542524F5554494E452064C8
:102E1000657074683A0057726974696E6720746FE0
:102E20002066696C653A2000667265736800646F9D
:102E3000696E67002066696C653A20004E6F7720E6
:102E4000002F6175746F25632E67001000C9021092
:102E5000012C014001220170011801B0010E01F0A6
:102E60000104015002FA00B002F0003003E600D085
:102E700003DC009004D2007005C800A006BE00006C
:102E800008B400B009AA00D00BA000600E96006044
:102E9000118C000015820020197800C01D6E00A062
:102EA000226400B0275A00902C500000314600E008
:102EB000343C0010383200903A2800603C1E00A0DC
:102EC0003D1400803E0A00203F00002020506C612D
:102ED0006E6E657242756666657242797465733AA4
:102EE00020002046726565204D656D6F72793A202D
:102EF0000020436F6D70696C65643A204E6F7620D8
:102F0000323820323032330A00204C61737420553D
:102F10007064617465643A20323032332D30352D5F
:102F20003136207C20417574686F723A20284A6FD0
:102F30006E2C204F726967696E616C2053746F63E9
:102F40006B204D4B3220436F6E666967290A004D36
:102F500061726C696E20322E312E322E310A0020C1
:102F6000536F6674776172652052657365740A00E9
:102F7000205761746368646F672052657365740AD3
:102F8000002042726F776E206F75742052657365F2
:102F9000740A002045787465726E616C2052657306
:102FA00065740A00506F77657255700A007374611A
:102FB00072740A004739310A4731205A350A4739B5
:102FC000300A4D3138004D31303031006F6B0065C3
:102FD00072726F722077726974696E6720746F20E5
:102FE00066696C650A00446F6E6520736176696E70
:102FF000672066696C652E0A004D323900456E64A3
:1030000073746F707300255320256320256320257A
:103010006320256300205A3A0020593A0020583A8C
:1030200000656E6473746F7073206869743A200071
:1030300000000A0B02090C0D0E0807030401000032
:103040000000000000000000000000000000000080
:10305000000000000000000000000000121110003D
:103060000000000000000000000000000000000060
:103070000000000000000000000000000000000050
:10308000000000000000D21F0000261800004B10B6
:103090000000E009000086050000EF020000840146
:1030A0000000C50000004D6F766520246D6D003076
:1030B0002E303235004D6F766520302E316D6D002B
:1030C0004D6F766520316D6D004D6F766520313026
:1030D0006D6D004D6F76652041786973004D6F7698
:1030E00065202A004D6F76652040005072696E742D
:1030F0002066726F6D204D656469610020000000DC
:103100002200250028002B002E003100340002018F
:103110000000050108010B01000021002400270028
:103120002A002D00300033000101000004010701D6
:103130000A0105050505070508080808020202023C
:103140000A0A080804040404010101010101010143
:103150000303030303030303040707070C0C0C0C0E
:103160000C0C0C0C020202020606060606060606F7
:103170000B0B0B0B0B0B0B0B07070A0A0A0A0A0AAD
:1031800005050504040408080102102020080810A1
:1031900020401020408002010201080402010102C7
:1031A00004081020408080402010080402018004A0
:1031B00002018040201008040201080402010102FB
:1031C00004081020408001020408102040801008EC
:1031D0000408801020400440801020400480FFFF3D
:1031E000FF50726F62696E67204661696C65640AA0
:1031F0000050726F62696E67204661696C65640099
:10320000205A3A200020593A200042656420583A5A
:10321000200043616E6E6F74206F70656E20737551
:10322000626469722000220A00556E6B6E6F776EC1
:1032300020636F6D6D616E643A202200204500208E
:103240005A0020590020204D39322058005374650F
:1032500070732070657220756E6974004572726FAC
:10326000722077726974696E6720746F20454550CB
:10327000524F4D210A0020746F6F206C6F6E6720D3
:10328000657874727573696F6E2070726576656E9D
:103290007465640A0020636F6C64206578747275CD
:1032A00073696F6E2070726576656E7465640A006E
:1032B000486F6D6520257320466972737400204540
:1032C0003A00205A3A0020593A00583A006F6B0AE7
:1032D00000526573656E643A20004A6F6E204D4B54
:1032E00032202D204D61726C696E20322E312E32CB
:1032F0002E312052656164792E005072696E7469B6
:103300006E672E2E2E005072696E74205061757398
:10331000656400001C1F11111F000000061918032E
:10332000130C00040E1F041C000000000E131511E6
:103330000E00000004120912040000040A0A0A0A1E
:1033400011110E0C12120C00000000001F151115B7
:103350001F0000009A00980011241FBECFEFD1E299
:10336000DEBFCDBF00E00CBF84B78093E51914BE6B
:103370000FB6F894A89580916000886180936000F2
:10338000109260000FBE13E0A0E0B2E0E0E7F8E4C6
:1033900002E00BBF02C007900D92AC3EB107D9F717
:1033A00029E1ACEEB3E001C01D92A53EB207E1F702
:1033B00019E1CBEAD9E100E006C021970109802F8D
:1033C000FE010F94D120CA3AD10780E00807A9F77F
:1033D0000F9466110D9427240C940000CF93DF9373
:1033E000EC01CB01BA010F94601C20E030E040E218
:1033F00051E40F94CC212AE037ED43E25CE30F94D3
:10340000F020688379838A839B83DF91CF9108952D
:10341000CF93DF93EC01CB01BA010F94601C20E045
:1034200030E040E251E40F94CC212AE037ED43E252
:103430005CE30F94F020688379838A839B83DF9118
:10344000CF910895CF93DF93EC01CB01BA010F9494
:10345000601C688379838A839B83DF91CF91089571
:10346000CF93DF93EC01CB01BA010F94601C68830A
:1034700079838A839B83DF91CF910895CF93DF93E4
:10348000EC01CB01BA010F94601C20E030E048EC65
:1034900052E40F94CC212FE632E143E85AE30F9433
:1034A000F020688379838A839B83DF91CF9108958D
:1034B000CF93DF93EC01CB01BA010F94601C20E0A5
:1034C00030E048EC52E40F94CC212FE632E143E89F
:1034D0005AE30F94F020688379838A839B83DF917A
:1034E000CF910895CF93DF93EC01CB01BA010F94F4
:1034F0005E1C2AE037ED43E25DE30F94CC210F948C
:103500003922688379838A839B83DF91CF910895E1
:10351000CF93DF93EC01CB01BA010F94601C2AE03A
:1035200037ED43E25DE30F94CC21688379838A838E
:103530009B83DF91CF910895FC01518340830895CF
:10354000CF93DF93EC01CB01BA010F94601C20E014
:1035500030E04AE754E40F94CC2127E137EB41ED0A
:1035600058E30F94F020688379838A839B83DF91EB
:10357000CF910895CF93DF93EC01CB01BA010F9463
:103580005E1C2AE037ED43E25CE30F94CC210F94FC
:103590003922688379838A839B83DF91CF91089551
:1035A000FC0184910895FC0180810895FC0180E074
:1035B000309749F09491992331F0907C903809F03C
:1035C0008F5F3196F7CF0895009751F0FC0180E0AE
:1035D0009191992331F0907C9038D1F38F5FF8CF9F
:1035E00080E00895AF92BF92CF92DF92EF92FF9268
:1035F0000F931F93CF93DF93EC015B018A01FB01D3
:10360000199587FD16C0C82ED12CF12CE12C2196DE
:10361000F801C082D182E282F382CE01DF91CF91A4
:103620001F910F91FF90EF90DF90CF90BF90AF90E0
:103630000895982F907E903CA9F48F7190E0B0E0AF
:10364000A0E06C017D0156E0CC0CDD1CEE1CFF1CE3
:103650005A95D1F7CE010196F50119958F73C82AB5
:103660002296D6CF982F907F903E11F58F7090E0E4
:10367000B0E0A0E06C017D0136E0CC0CDD1CEE1C5E
:10368000FF1C3A95D1F7CE010196F50119958F737C
:10369000C82A46E0CC0CDD1CEE1CFF1C4A95D1F775
:1036A000CE010296F50119958F73C82A2396B0CFE3
:1036B000982F987F903F79F5877090E0B0E0A0E078
:1036C0006C017D0186E0CC0CDD1CEE1CFF1C8A9594
:1036D000D1F7CE010196F50119958F73C82A96E0AE
:1036E000CC0CDD1CEE1CFF1C9A95D1F7CE01029686
:1036F000F50119958F73C82A26E0CC0CDD1CEE1C51
:10370000FF1C2A95D1F7CE010396F50119958F7309
:10371000C82A24967DCF982F907C903841F4807CE5
:10372000803869F42196CE01F5011995F8CF8E7F86
:103730008D3F28F02196CE01F5011995F8CFC12CC7
:10374000D12C760165CFCF93DF93C0910B15D0912B
:103750000C1581E0CE31D105E4F020E030E040E00E
:103760005FE360910715709108158091091590919C
:103770000A150F94F0200F9434226C1B7D0B77FFF9
:1037800003C071956195710981E0633071050CF09A
:1037900080E0DF91CF910895CF93DF93DB01F901B2
:1037A0009C919130C1F0943080F094509C9388307B
:1037B000D1F480819181009771F00197918380838A
:1037C000480F591FEA01188206C08C3539F49C5FF6
:1037D0009C93943041F4DF91CF9108958B3339F766
:1037E00081E08C93F8CF20813181B9016F5F7F4FE9
:1037F00071836083420F531FEA0188838081918126
:103800008F3591056CF7E7CF0F931F9381E00091FF
:10381000F4161091F5162091F6163091F716409196
:10382000F0165091F1166091F2167091F31604178C
:1038300015072607370708F480E01F910F910895B8
:1038400090E080E008952091D805833021F425FD93
:103850000CC024FD0CC030E0A90102C0559547956D
:103860008A95E2F7CA018170089581E0089580E0A9
:1038700008958091F40584FD0BC08091F60587FDC5
:1038800007C09091F705937081E019F480E00895E6
:1038900081E008952FEB280F2A3108F047C0E22F6E
:1038A000F0E08091F4059091F505A091F605B091B6
:1038B000F70504C0B695A795979587952A95D2F7F1
:1038C00080FD02C081700895E652FA4FE081EE2338
:1038D00041F18091EF0B9091F00BE80FF92FF11D62
:1038E000808190ED980F9A3030F08E3251F48181C2
:1038F00080538A3098F4F093CE05E093CD0581E0B3
:1039000008958D3211F08B3249F4818190ED980F3A
:103910009A3088F38E3211F48281EACFF0E0E0E051
:10392000EACF1092CE051092CD05E9CF80E0089540
:10393000B1DF882341F081E02091CD053091CE05A3
:10394000232B09F480E008958F929F92AF92BF924B
:10395000CF92DF92EF92FF920F931F93CF93DF935B
:10396000863008F091C0663008F08EC0162FC82F40
:10397000882331F102E083E0C53021F1C150DD0B35
:10398000CC0FDD1FCC0FDD1F662309F46AC0653044
:1039900009F06AC012E0E3E0EC0FFD2FF11DEE0F1D
:1039A000FF1FEE0FFF1FEC54F94F60817181828180
:1039B00093819B01AC010F94F020C10FD11D24C055
:1039C00001E080E09FEF910F943048F5212F2150C6
:1039D000330BE90134E0839FF0011124EC0FFD1F4C
:1039E000EE0FFF1FEE0FFF1FEC54F94F6081718146
:1039F000828193819B01AC010F94F02044E0049FED
:103A000090011124C20FD31FCC0FDD1FCC0FDD1F7F
:103A1000CC54D94F288139814A815B8113C0612FF1
:103A20008F5F92DF6B017C01612F81E0800F8CDF63
:103A30004B015C01A7019601C701B6010F94F0206C
:103A4000A50194010F94EF20DF91CF911F910F9169
:103A5000FF90EF90DF90CF90BF90AF909F908F90AE
:103A6000089511E0E0E098CF862F8150990BC80FA0
:103A7000D91FCC0FDD1FCC0FDD1FCC54D94F68816F
:103A800079818A819B81E0CF60E070E0CB01DCCF5F
:103A90000F94601C20E030E048EC52E40F94CC21FD
:103AA0002FE632E143E85AE30F94F0200C94C1D89A
:103AB0000F94601C20E030E040E251E40F94CC21F0
:103AC0002AE037ED43E25CE30F94F0200C9440D8F9
:103AD000CF92DF92EF92FF920F94601C6B017C01FA
:103AE00020E030E0A9010F945A1C2DEB37E346E0AB
:103AF00055E387FF04C02DEB37E346E055EBC701E4
:103B0000B6010F94F0206B017C0120E030E0A901A8
:103B10000F945A1C20E030E040E05FE387FF04C0D0
:103B200020E030E040E05FEBC701B6010F94F020E9
:103B30000F943422CB01FF90EF90DF90CF900C9444
:103B4000E3C2CB010C94E3C2CF92DF92EF92FF92DB
:103B5000CF93DF9300D01F92CDB7DEB70F94601CD8
:103B600020E030E048EC52E40F94CC212FE632E123
:103B700043E85AE30F94F0206B017C0120E030E031
:103B8000A9010F945A1C2DEB37E346E055E387FF5C
:103B900004C02DEB37E346E055EBC701B6010F94A7
:103BA000F02069837A838B839C83CE0101960E94E7
:103BB00013C20F900F900F900F90DF91CF91FF9055
:103BC000EF90DF90CF9008950F94601C20E030E0DC
:103BD00040E251E40F94CC212AE037ED43E25CE36C
:103BE0000F94F0200C94B5D90F94601C2AE037EDA7
:103BF00043E25DE30F94CC210C9496DA0F94601CA1
:103C00000C9496DA0F94601C20E030E04AE754E40C
:103C10000F94CC2127E137EB41ED58E30F94F020CE
:103C20000C9480D30F94601C20E030E048EC52E408
:103C30000F94CC212FE632E143E85AE30F94F020B1
:103C40000C946DC90F945E1C2AE037ED43E25DE3EE
:103C50000F94CC210F9439220C9429D80F945E1C18
:103C60002AE037ED43E25CE30F94CC210F94392234
:103C70000C9429D80C94ED9F0C94ED9FCF93DF9377
:103C800000D01F92CDB7DEB780E090E0ACE0B2E4A8
:103C900089839A83AB83BC83BE016F5F7F4F81E0D2
:103CA0000E943CA00F900F900F900F90DF91CF914A
:103CB00008956BEC7BE081E00C943CA0CF93DF9304
:103CC00000D01F92CDB7DEB719821A821B821C82E8
:103CD000BE016F5F7F4F81E00E943CA00F900F906C
:103CE0000F900F90DF91CF910895CF93DF9300D085
:103CF0001F92CDB7DEB780E090E0ACE0B2E48983FC
:103D00009A83AB83BC83BE016F5F7F4F80E00E94CC
:103D10003CA00F900F900F900F90DF91CF910895DE
:103D20006BEC7BE080E00C943CA0CF93DF9300D061
:103D30001F92CDB7DEB719821A821B821C82BE0188
:103D40006F5F7F4F80E00E943CA00F900F900F901C
:103D50000F90DF91CF9108956BEC7BE081E00C94A4
:103D6000DD986BEC7BE080E00C94DD980C949F9FD9
:103D70000C949F9F0C949F9F0C949F9F63E972E00B
:103D800084E690E00E9442C970E060E08AE090E042
:103D90000E9442C96AEB72E084E690E00C9442C94A
:103DA0000E9482BDEBCF8111E9CF68E270E080E92B
:103DB00091E00C9442C90E94DC9BF5CF0E946EBF3B
:103DC000F2CFCF92DF92EF92FF920F931F930E9458
:103DD00095FC009102061091030620910406309193
:103DE00005066B017C01C01AD10AE20AF30A9701A9
:103DF000860137FD11C02091010620952093010610
:103E00006A547C4F8F4F9F4F609302067093030656
:103E1000809304069093050681E09091010691112C
:103E200001C080E01F910F91FF90EF90DF90CF9045
:103E30000895CF93DF93C0910B15D0910C15209767
:103E400029F16091071570910815809109159091DD
:103E50000A150F9434226E5F7F4F24976C177D07ED
:103E6000ACF470930107609300070E9495FC605AC0
:103E700075418F4F9F4F60930207709303078093A4
:103E8000040790930507DF91CF91089510920207E0
:103E9000109203071092040710920507F4CF20E058
:103EA00044E064E188EC95E10E941AFD0E9426ED51
:103EB00088EC95E10C9413FDCF92DF92EF92FF9284
:103EC0000F931F93CF93DF9300D000D0CDB7DEB711
:103ED0008A0146E0469F9001479F300D1124BC01A6
:103EE000620F731F46E050E0CE0101960F94831BD2
:103EF000C980DA80EB80FC80F801408151816281C9
:103F000073818FEF9FEFC416D506E606F70640F0E3
:103F100081E090E04C155D056E057F0508F080E0BE
:103F200026960FB6F894DEBF0FBECDBFDF91CF91BE
:103F30001F910F91FF90EF90DF90CF9008950F9316
:103F40001F93CF93DF93CDB7DEB72E970FB6F894BC
:103F5000DEBF0FBECDBF8B011E861D86FC016081BA
:103F60007181828193816F83788789879A872FEF08
:103F70002B87603871058105910538F488EC95E14F
:103F80000E94CFDC81E090E02FC09E01235F3F4F75
:103F9000AE01495F5F4F69EB70E082E692E10E94FB
:103FA000D2EC97FD2CC08D859E8526E0289FB00120
:103FB000299F700D11246E597D4E46E050E0CE01D0
:103FC00001960F94831B6D8188EC95E10E94CFDCF4
:103FD00001301105B9F26E816623A1F288EC95E1FA
:103FE0000E94CFDC82E090E02E960FB6F894DEBF00
:103FF0000FBECDBFDF91CF911F910F9108959E010C
:10400000235F3F4FAE01495F5F4F63E670E080E1A1
:1040100090E10E94D2EC97FD0BC08D859E8526E035
:10402000289FB001299F700D1124605F7F4EC5CF7E
:104030006FE3A4CFCF93DF9300D01F92CDB7DEB74D
:1040400080E090E0A0E0B0E489839A83AB83BC83F6
:1040500061E0CE0101960E9407B60F900F900F907D
:104060000F90DF91CF9108958091CD059091CE056D
:10407000009731F04AE050E070E060E00D947B1A68
:1040800060E070E0CB0108958091CD059091CE0560
:10409000009731F04AE050E070E060E00D94501974
:1040A00060E070E0CB010895CF93DF93EB0140DC3B
:1040B000882311F0E9DFEB01CE01DF91CF91089564
:1040C000E3DF97FD0AC0E0DF6F3F710581059105D1
:1040D00009F02CF4D9DF862F089580E008958FEF42
:1040E0000895CF93C62F24DC882311F0CF91E8CF19
:1040F0008C2FCF9108958091CD059091CE05892B7D
:1041000039F0DEDF91E0811101C090E0892F089540
:1041100091E0FCCFCF93DF93C82FD62F09DC882303
:1041200019F0DF91CF91E7CF8C2FB4DB811101C063
:104130008D2FDF91CF910895A7DFCB010895CF9305
:10414000DF93EB01F5DB882319F0DF91CF91F4CFFA
:10415000CE01DF91CF9108950F931F93CF9380915C
:10416000CD059091CE05009709F1FC018F01C19119
:104170002C2F2F7DA1F0C53431F0C53621F0C83584
:1041800011F0C83799F7F801108270E060E00F94E1
:10419000FB17F801C083CF911F910F91089570E034
:1041A00060E0CF911F910F910D94FB1760E070E0DC
:1041B000CB01F1CFCF92DF92EF92FF926A017B01A8
:1041C000B7DB882329F0FF90EF90DF90CF90C4CF2A
:1041D000C701B601FF90EF90DF90CF9008954F9206
:1041E0005F926F927F92AF92BF92CF92DF92EF92E7
:1041F000FF920F931F93CF938BE8A82E83E0B82EE6
:104200009CE7E92E96E0F92E08E612E02CECC22E8F
:1042100021E1D22EC0E0F50181915F0189DB882385
:1042200009F476C099DF2B013C018C2F0CDB88232D
:1042300009F464C0F8012081318142815381C301B6
:10424000B2010F94F020F70160837183828393831E
:10425000CF5FF4E0EF0EF11C0C5F1F4F84E0C80E3F
:10426000D11CC330C1F685E463DB882309F45BC04D
:1042700073DF6B017C0183E0E6DA882371F0209123
:104280007402309175024091760250917702C70115
:10429000B6010F94F0206B017C01C0928806D09289
:1042A0008906E0928A06F0928B0640E050E0BA015F
:1042B00086E480DF20E030E0A9010F941623181671
:1042C0007CF44ADF20E030E040E752E40F94CC2158
:1042D000609318027093190280931A0290931B0244
:1042E000CF911F910F91FF90EF90DF90CF90BF90F3
:1042F000AF907F906F905F904F900895F60120816E
:10430000318142815381C301B2010F94EF209BCFD1
:10431000F80180819181A281B381F701808391832B
:10432000A283B38395CF8091740290917502A0917E
:104330007602B09177028093880690938906A093C5
:104340008A06B0938B06B1CF0F931F93522F209103
:10435000C6153091C7152817390751F110929C06E0
:104360009093C7158093C6158B0130E020E0009331
:10437000D50B1093D60B2093D70B3093D80B4093CB
:10438000CF0B5093D00B825B964421F410926C06B5
:1043900010925E0688EC95E10E9413FD0E9426EDC6
:1043A00082E080935F0281E08093E50B10926906C2
:1043B0001F910F91089520E040E070E060E082EBF3
:1043C00096E4C2CFCF930E9482BD0E94DC9BC82F8F
:1043D000882319F080E00E94DF9A8C2FE4DCCF91D3
:1043E000EACF83EA98E19093B00B8093AF0BE3CFD1
:1043F000CF93DF93C0915E06CC23B1F0C150C09340
:104400005E0689E0C89FE0011124C85DD94F6A812A
:104410007B812F814E818881998196DF8885809369
:104420006C06DF91CF910895DF91CF91C4CFE091D9
:104430005E06E63028F581E08E0F80935E0640919F
:10444000D50B5091D60B6091D70B7091D80B209162
:10445000CF0B9091D00B80916C0639E0E39FF00177
:104460001124E85DF94FA091C615B091C715B1832D
:10447000A0834283538364837583268397838087D5
:10448000089520916106211107C0909360068093E2
:104490005F0681E080936106CADF20E040E070E0C3
:1044A00060E084E59AE250DF81E080936C060E9430
:1044B00010A010926C069CCFCF93DF93CDB7DEB7E0
:1044C0008E81282F082E000C330B90919D1492178B
:1044D000130609F08CF480939D149E01275F3F4FD3
:1044E0004F81588568E270E084E794E10F94221CC4
:1044F0001092731410927214DF91CF9108950F935C
:104500001F93CF93DF938C016F3F19F410929D148A
:1045100060E020919D14862F062E000C990B281721
:10452000190609F014F560939D14C8010F94A91B96
:10453000800F911FEC01C01BD10BC932D1053CF09B
:104540000197FC012491207C2038D1F3F3CFDD27A3
:10455000AE01B80184E794E10F94CA1BCC58DB4E3E
:1045600018821092731410927214DF91CF911F91E0
:104570000F9108958AE197E184DF81E080936C06D2
:1045800060E086E093E3BBDF86E197E19093B00BB8
:104590008093AF0B08950F931F930E9495FC009199
:1045A0002306109124062091250630912606601BD3
:1045B000710B820B930B97FD10C0809103018695C0
:1045C000817091E089279091030192FF8260909120
:1045D000000196FF846080932206809122068170FC
:1045E0009091220691FD826090912106981749F0E2
:1045F000813009F148F0823079F0833091F0809376
:1046000021061F910F910895913079F09230B9F7FA
:10461000909120069F5F0CC0992339F09330C1F32D
:10462000EECF9130A9F3923051F79091200691503E
:1046300090932006E4CF992359F3933001F7F5CFF7
:104640004F925F926F927F928F929F92AF92BF92A2
:10465000CF92DF92EF92FF921F93CF93DF93CDB76C
:10466000DEB760970FB6F894DEBF0FBECDBF0E94D5
:1046700095FC6B017C01809108028F3F09F444C0D6
:104680000E9495FC8090100690901106A090120652
:10469000B0901306681979098A099B0997FD34C0FF
:1046A00080919015909191158F5F8F70891761F1AE
:1046B000E0910802E43008F05FC024E0E29FF001DE
:1046C0001124E251FD4F80819181A281B3818D87B8
:1046D0009E87AF87B88B19821A821B821C821D822B
:1046E0001E821F82188619861A861B861C86AE01BA
:1046F0004F5F5F4FBE01635F7F4F88E692E00E948D
:104700000AF18FEF8093080246DF8091220682FF34
:104710003CC080911F0681113AC091E090931F0622
:104720008091270689278093BF0B1092270683E08C
:1047300080935F02109222060E9495FC6C507E4F7F
:104740008F4F9F4F60932306709324068093250616
:104750009093260668E873E182E090E00E9442C9E7
:1047600016E01150A1F00E94DCC862E070E080E029
:1047700090E00E94FBFBF5CF809160029091610276
:10478000A0916202B0916302A2CF10921F068091A5
:104790001B0690911C06A0911D06B0911E06A70154
:1047A0009601281B390B4A0B5B0BDA01C901B7FDD7
:1047B00088C1D701C6018C599F4FAF4FBF4F80931F
:1047C0001B0690931C06A0931D06B0931E066091D5
:1047D0002006062E000C770B77FF03C071956195BC
:1047E00071099091200680911A06981398C0633041
:1047F00008F095C0109220068091200680931A063A
:10480000643008F09CC08091BF0B81111AC1809167
:10481000C6159091C715825B964441F480910902B8
:10482000882309F420C18150809309020E94DDA2EF
:1048300080901B0C90901C0CA0901D0CB0901E0C36
:1048400081110E94EAA2D501C4014AE0B695A7955C
:10485000979587954A95D1F78F3F4FEF9407A1051C
:10486000B10520F08FEF9FEFA0E0B0E020915F0254
:104870002223C9F196958795009739F04091140647
:10488000509115064817590770F5223038F024303A
:1048900008F4FBC0243011F410925F02E091C615B9
:1048A000F091C71519951092BF0B8091C615909184
:1048B000C715825B9644F9F40E9495FCDC01CB019C
:1048C0008C199D09AE09BF098090140690901506B9
:1048D000B12CA12C88169906AA06BB0620F4909349
:1048E0001506809314068091C6159091C715825BBA
:1048F000964409F4CEC080916C068111CAC08091A3
:10490000160690911706A0911806B0911906C81ABC
:10491000D90AEA0AFB0AF7FCCAC04DDDC8C06330F9
:1049200009F06ACF8091200687FD07C081E0880FDB
:10493000880F8093200664E05FCF8FEFF8CF8091DF
:10494000EA0B21E030E040E050E0882309F456C053
:104950008090E60B9090E70BA090E80BB090E90BED
:1049600081149104A104B104E9F170E090E080E0C9
:104970000F945E1C20E030E040E85EE30F94BF1C23
:104980002B013C01C701B601681979098A099B0905
:104990000F945E1C9B01AC01C301B2010F94CC21AA
:1049A00020E030E04AE754E40F94BF1C4B015C0167
:1049B00020E030E040EA52E40F94162324E630E091
:1049C00040E050E087FF12C020E030E040EF51E4CB
:1049D000C501B4010F9416232AE030E040E050E016
:1049E00087FF04C021E030E040E050E0C092E60BD9
:1049F000D092E70BE092E80BF092E90BA091200631
:104A00000A2E000CBB0B0F947C2024E030E040E029
:104A100050E00F9456208091D50B9091D60BA09129
:104A2000D70BB091D80B820F931FA41FB51F809393
:104A3000D50B9093D60BA093D70BB093D80B1092B5
:104A40002006D701C6018856954CAF4FBF4F8093C3
:104A5000160690931706A0931806B093190681E0E6
:104A600080935F02D4CE89E080930902809114067E
:104A700090911506009729F0019790931506809361
:104A8000140681E080935F02D1CE81E080935F02C3
:104A900005CF38E9C30E3AE3D31EE11CF11CC092E6
:104AA0001606D0921706E0921806F0921906809129
:104AB0005F028130E1F0833021F488EC95E10E94BF
:104AC00013FD60960FB6F894DEBF0FBECDBFDF9129
:104AD000CF911F91FF90EF90DF90CF90BF90AF905C
:104AE0009F908F907F906F905F904F90089510925D
:104AF0005F02E7CFCF92DF92EF92FF92CF93C82F62
:104B00000E9495FC6B017C0124EA30E74DE75FE3EE
:104B1000609112027091130280911402909115021B
:104B20000F945A1C87FD18C08AEF90E0A0E0B0E017
:104B30008C0D9D1DAE1DBF1D809310069093110618
:104B4000A0931206B0931306C0930802CF91FF9072
:104B5000EF90DF90CF90089580E090E0DC01E8CF07
:104B6000CF93DF939CD9E4E0F1E080818D7F808357
:104B7000C5E0D1E0888180958270A3E0B1E08C939C
:104B800080818B7F80838881809584708C93E1E025
:104B9000F1E080818F7B8083809102018095807419
:104BA00080930001F8DC10922006DF91CF910C94E5
:104BB00075EDCF92DF92EF92FF920F931F93CF93F9
:104BC000DF9300D000D01F921F92CDB7DEB78E01C9
:104BD0000F5F1F4FD80130E020E0FB01E20FF31F11
:104BE000E491ED932F5F3F4F28303105B1F798E006
:104BF0008902B0011124606488EC95E10E940BFDEC
:104C000083E790E00197F1F77801E8E0EE0EF11C00
:104C10008BE9C82ED12CF80161918F0188EC95E1C8
:104C20000E94CFDCC6010197F1F7E016F10699F773
:104C300028960FB6F894DEBF0FBECDBFDF91CF919F
:104C40001F910F91FF90EF90DF90CF9008956FEF3D
:104C50007FEF75C9AF92BF92CF92DF92EF92FF9232
:104C60000F931F93CF93DF9300D01F92CDB7DEB782
:104C70006C015B017A0110E000E00E151F05C8F41D
:104C8000AE014F5F5F4FB501C6010E94F21A6C0181
:104C900089819A81AB81BC81892B8A2B8B2B49F02E
:104CA000B701601B710BCE01019649D9080F191F7E
:104CB000E4CFC8010F900F900F900F90DF91CF912C
:104CC0001F910F91FF90EF90DF90CF90BF90AF902A
:104CD00008954FEF5FEF63ED7AE1BCCF4FEF5FEFE9
:104CE00060ED7AE1B7CF8F929F92AF92BF92CF9251
:104CF000DF92EF92FF920F931F93CF93DF9300D039
:104D000000D01F921F92CDB7DEB77C01162F5A013B
:104D10004901862F660F990B9C0125573C4F69016D
:104D20001016D4F5AE014B5F5F4F60ED7AE1C7011D
:104D30000E94F21A7C018D819E81AF81B885009717
:104D4000A105B10549F18D339105A105B10509F41E
:104D50006EC08E379105A105B10509F468C08A328D
:104D60009105A105B10561F517FF0FC088EC96E12B
:104D70001E3F11F084EC96E1402F002E000C550BE5
:104D800060ED7AE167DF081B8AC082ED96E1A6DF5D
:104D9000015009F04EC000E0802F28960FB6F8941D
:104DA000DEBF0FBECDBFDF91CF911F910F91FF905E
:104DB000EF90DF90CF90BF90AF909F908F9008952D
:104DC00084329105A105B105C1F48114910451F01B
:104DD000402F002E000C550B60ED7AE1C4013ADF44
:104DE000081B9ECFA114B104E9F0402F002E000C47
:104DF000550B63ED7AE1C501F2CF80349105A10531
:104E0000B10581F40150F6018081082E000C990B48
:104E1000AA0BBB0B89839A83AB83BC83CE0101961B
:104E200016DF7ECFCE01059612DF015079CF17FD38
:104E30009DCF81E04D815E816F8178854D33510535
:104E40006105710509F480E0810F8A30C4F00150DA
:104E50006AE00F949D20192F082E000C990BC09624
:104E6000092E000CAA0BBB0B89839A83AB83BC83EE
:104E7000CE010196ECDE002309F48DCF812F082EA0
:104E8000000C990BC096092E000CAA0BBB0B898352
:104E90009A83AB83BC83CE010196D9DE01500023F7
:104EA00009F479CF402F002E000C550B60ED7AE10C
:104EB000C701D0DE081B70CF0F931F93CF93DF93F2
:104EC00000D000D01F921F92CDB7DEB700917A02BA
:104ED00010917B0220917C0230917D020D831E8314
:104EE0002F83388700917E0210917F0220918002EB
:104EF0003091810209831A832B833C839091CF15D3
:104F0000691710F06FEF690F262F30E04091D01530
:104F10002C0F3D1FF901403199F4943089F46181DF
:104F2000680F606888EC95E128960FB6F894DEBFAC
:104F30000FBECDBFDF91CF911F910F910C940BFD50
:104F40006581EECFFC01A081B1811C92A281B38169
:104F50008C918F5F8C930280F381E02D608180E0E3
:104F6000ABCF4F925F926F927F928F929F92BF9240
:104F7000CF92DF92EF92FF920F931F93CF93DF9325
:104F800000D000D01F921F92CDB7DEB77C013B014D
:104F90006A014901FB016081FC0180818DDFC11440
:104FA000D10469F1FA82E9827C826B82011120C00E
:104FB000AE014B5F5F4FB401C6010E94F21A6C0153
:104FC0008D819E81AF81B885892B8A2B8B2BB9F07F
:104FD000CE0105963CDEF70180818F5F80838431AE
:104FE00038F3CE010196AEDFE3CFB12C860129C0A4
:104FF0008601B12C26C0452846284728B1F72896B7
:105000000FB6F894DEBF0FBECDBFDF91CF911F91D9
:105010000F91FF90EF90DF90CF90BF909F908F9077
:105020007F906F905F904F900895B39407C0B11038
:105030002EC001151105C9F20F5F1F4F0115110593
:10504000A9F2AE014B5F5F4FB401C6010E94F21A94
:105050006C014D805E806F8078844114510461043E
:105060007104A9F0F0E24F16510461047104F9F2E1
:10507000D301C2018D97A109B1090297A105B1051C
:1050800030F04BE2441651046104710471F6F701EB
:105090008081482F4B0D5527551F453151052CF068
:1050A000853018F0CE0101964DDF81E041145104A6
:1050B0006104710409F480E0B80EF70180818B0D62
:1050C0008083BB2009F497CFBA94AE014B5F5F4F4A
:1050D000B401C8010E94F21A8C01CE010596B7DD19
:1050E000F0CF2F923F924F925F926F927F928F926A
:1050F0009F92AF92BF92CF92DF92EF92FF920F9367
:105100001F93CF93DF9300D000D0CDB7DEB74C0113
:105110003B015A012E83232E280181E080936C06E7
:105120004091D50B5091D60B6091D70B7091D80B55
:10513000411551056105710571F0141615060CF045
:1051400080E0809369061092D50B1092D60B1092D6
:10515000D70B1092D80B109169063090BF0B1092AC
:10516000BF0B311005C080915F02882309F4AFC0E6
:10517000C2010E94D61A082F80E0C114D10419F090
:10518000C6010E94D61A1D821982E114F104B1F4FD
:10519000402F50E0282F30E0CA01820F931F45971F
:1051A0006CF484E190E0841B950B821B930B97FDBC
:1051B0000196959587958D8381E0898301E020EDA7
:1051C0003AE1A201BE016F5F7F4FCE010596C9DEB5
:1051D000E114F10489F08D81882321F01D828981F9
:1051E0008F5F898300E023ED3AE1A701BE016F5F85
:1051F0007F4FCE010596B5DEC114D10451F000E019
:1052000020ED3AE1A601BE016F5F7F4FCE0105960A
:10521000A8DE63E080E050DE8BE590E0A0E0B0E047
:10522000112321F080E290E0A0E0B0E089839A832E
:10523000AB83BC83CE0101960ADDC3014FDD8DE552
:1052400090E0A0E0B0E0112321F080E290E0A0E047
:10525000B0E089839A83AB83BC83CE010196F7DCEF
:10526000C4010E94D61A63E092E1981B892F24DEC4
:1052700080E290E0A0E0B0E0112321F08BE590E027
:10528000A0E0B0E089839A83AB83BC83CE01019612
:10529000DEDCC40123DD80E290E0A0E0B0E0112379
:1052A00021F08DE590E0A0E0B0E089839A83AB83A4
:1052B000BC83CE010196CBDC332049F0111102C032
:1052C000AE80B22CA114B104D9F0F501199526963F
:1052D0000FB6F894DEBF0FBECDBFDF91CF911F9107
:1052E0000F91FF90EF90DF90CF90BF90AF909F9085
:1052F0008F907F906F905F904F903F902F90089588
:1053000077D8E5CFCF92DF92EF92FF920F931F9362
:1053100085E9C82E88E1D82EF12CE12C08EA18E1A5
:1053200030E020E042EE51E267E978E18EE998E171
:10533000D8DE1F910F91FF90EF90DF90CF900895EE
:10534000AF92BF92CF92DF92EF92FF920F931F9393
:10535000CF93DF93CDB7DEB7ADB6BEB688E397E1A6
:105360000E94D61A90E001962DB73EB7281B390B44
:105370000FB6F8943EBF0FBE2DBF8DB79EB70196F6
:105380007C0168E377E10F94A21BE091CB0BE15025
:1053900010E000E0E43038F4F0E0EE0FFF1FED56CF
:1053A000FC4F0081118189E2C82E87E1D82E2BEDB8
:1053B00031E242EE51E26BE277E182E397E191DE86
:1053C0000FB6F894BEBE0FBEADBEDF91CF911F9158
:1053D0000F91FF90EF90DF90CF90BF90AF90089526
:1053E000CF92DF92EF92FF920F931F93CF93DF93B1
:1053F0007B01142FE901682F80E05EDDC12CE114F0
:10540000F10421F0C7010E94D61AC82ED12C209792
:1054100021F0CE010E94E41AD82E04E110FF1AC038
:1054200084E190E08C199109C7FC93958D1991093D
:10543000D7FC939597FD01969595879504E11BEE12
:10544000180F812F800F87FD05C08AEB96E146DC9F
:105450000150F7CFCC2069F02091C60B3091C70BDB
:105460004091C40B5091C50B6091C80BC7013BDC48
:10547000082FDD2049F0402F002E000C550B63ED66
:105480007AE1CE01E7DB081B10162CF488EB96E1DD
:1054900025DC0150F9CFDF91CF911F910F91FF9043
:1054A000EF90DF90CF90089580915F02882349F0BC
:1054B00060915F067091600630E020E041E081E09D
:1054C0008FCF0895CF93DF93EA01F6DCCE01DF9111
:1054D000CF91BDCB8F929F92AF92BF92CF92DF922E
:1054E000EF92FF920F931F93CF93DF9300D01F9201
:1054F000CDB7DEB76C017B018090C60B9090C70BD7
:10550000A090C40BB090C50B1091C80B61E080E077
:10551000D3DC03E19401A501612FC601E4DB182F60
:10552000E114F104E9F082EC96E1D8DBC7010E94B6
:10553000E41A8F5F115061E0181708F462E000E28E
:1055400010E020E030E009831A832B833C83AE0116
:105550004F5F5F4F94E1981B892FB4DFC701B9DB20
:105560000F900F900F900F90DF91CF911F910F919F
:10557000FF90EF90DF90CF90BF90AF909F908F9073
:1055800008950F931F93CF93DF93FC01EB0180915C
:10559000D50B9091D60BA091D70BB091D80BB7FD3E
:1055A00075C04091D90B5091DA0B6091DB0B709173
:1055B000DC0B481759076A077B0714F4DB01CA01A3
:1055C0008093D50B9093D60BA093D70BB093D80BA9
:1055D00020915F022223B9F04091DD0B5091DE0B48
:1055E0006091DF0B7091E00B8C019D01040F151F82
:1055F000261F371FC901B8011995BC018091E30B23
:105600009091E40B67DF8091BF0B811109C08091FD
:10561000D20B882309F43EC080915F028823D1F128
:105620008091E10B9091E20B0097B1F04091D50B86
:105630005091D60B6091D70B7091D80B0091DD0B78
:105640001091DE0B2091DF0B3091E00B400F511FCA
:10565000621F731FFE011995E091D30BF091D40BDB
:10566000309741F08091D20B811103C08091BF0B24
:10567000811119958091BF0B1092BF0B882351F0B7
:10568000DF91CF911F910F910C94F82180E090E071
:10569000DC0196CFDF91CF911F910F91089562E6C3
:1056A0007CE888E49DE16DCF68E07AE188E59DE1E2
:1056B00068CF60E37AE188E69DE163CF68E57AE14F
:1056C00084EA9DE15ECF6EEE79E184EE9DE159CFF3
:1056D00062E77AE182E29EE154CF68E87AE184EF02
:1056E0009DE14FCF62E27AE18EEF9DE14ACF6CE916
:1056F0007AE181EA9DE145CF60EA7AE182E09EE1CC
:1057000040CF6EE37AE182E19EE13BCF6AEB7AE142
:105710008EE29EE136CF9F92AF92BF92CF92DF9200
:10572000EF92FF920F931F93CF93DF9300D01F92BE
:10573000CDB7DEB7982EB62E6A017901A02E2115BD
:10574000310509F46FC0C901002391F10E94D61AF6
:10575000182F8EE390E0A0E0B0E0911004C080E24A
:1057600090E0A0E0B0E089839A83AB83BC83AE0174
:105770004F5F5F4F6B2D80E0A5DE02E1011B2091A2
:10578000C60B3091C70B4091C40B5091C50B609173
:10579000C80BC601A8DA082F1123A9F080EC96E106
:1057A0009DDA002341F08EEB96E198DA0150F9CFB3
:1057B0000E94E41ACDCFAA20B1F04FEF5FEF60ED69
:1057C0007AE1C70147DA0F900F900F900F90DF91A9
:1057D000CF911F910F91FF90EF90DF90CF90BF90EE
:1057E000AF909F900895C70174DAEDCF8EE390E0FB
:1057F000A0E0B0E089839A83AB83BC83AE014F5FA6
:105800005F4F6B2D80E05EDE2091C60B3091C70BA1
:105810004091C40B5091C50B02E16091C80BC601C9
:1058200062DAD1CF8111E2CF10E099CFEF92FF92EF
:105830000F931F93CF93DF9300D01F92CDB7DEB7A6
:105840007A01102F811101C020E2822F220F990BC3
:10585000AA0BBB0B89839A83AB83BC83AE014F5FDA
:105860005F4F80E02FDE2091C60B3091C70B409137
:10587000C40B5091C50B02E16091C80BC70133DA2C
:10588000082F002329F08CEB96E128DA0150F9CF9C
:10589000012F110F110B220B330B09831A832B835A
:1058A0003C83CE010196D3D90F900F900F900F90AB
:1058B000DF91CF911F910F91FF90EF9008958F92FC
:1058C0009F92AF92BF92CF92DF92EF92FF920F938F
:1058D0001F93CF93DF93CDB7DEB760970FB6F894E1
:1058E000DEBF0FBECDBF80E1E2E8F2E0DE0111963F
:1058F00001900D928A95E1F70E948FF88090CF0B6E
:10590000C12CD82CDC0CA1F48091D10B882309F494
:10591000C6C080915F02882359F081E09091D10B3D
:10592000911180E003E023E043E858E16C2D7EDF35
:10593000AA24A394B12CDA102EC08FEF8A0D809385
:10594000C80B1092C70B1092C60B1092C50B109289
:10595000C40B8091D10B8D1509F4C2C080915F02F8
:105960008823C9F011E08091D10B8D1110E0F50171
:10597000EE0FFF1FEE0FFF1FEC5CF34F60A171A154
:1059800082A193A10E9496DA00E09C0143EB57E1CB
:105990006C2D812FC0DE9A2C81E08A0D9FEFA91A11
:1059A000B90A94E0A916B10431F6D8122AC083E0EE
:1059B0008093C80B1092C70B1092C60B1092C50BA8
:1059C0001092C40B8091D10B8D1509F4B3C0809156
:1059D0005F028823B1F011E08091D10B8D1110E0AE
:1059E0006091640C7091650C8091660C9091670CCD
:1059F0000E9496DA00E09C0143EB57E16C2D812F69
:105A00008ADE82E0890D8D111FC08091D10B8D152A
:105A100009F4ADC080915F028823B1F011E080915C
:105A2000D10B8D1110E06091740C7091750C809108
:105A3000760C9091770C0E9496DA00E09C0146EA81
:105A400057E16C2D812F67DE83E0890D8D111FC01A
:105A50008091D10B8D1509F4A7C080915F02882336
:105A6000B1F011E08091D10B8D1110E06091780CB4
:105A70007091790C80917A0C90917B0C0E9496DA4F
:105A800000E09C0145E957E16C2D812F44DEC39471
:105A900084E0C81236CF890D8093D00B0EC0809160
:105AA000BF0B1092BF0B882309F433CF0E94F8215B
:105AB0008091E50B882309F42CCF60960FB6F894FB
:105AC000DEBF0FBECDBFDF91CF911F910F91FF9031
:105AD000EF90DF90CF90BF90AF909F908F90089500
